:020000040800F2
:1000000088060020251400089D1400089F1400088D
:10001000A3140008A7140008AB1400080000000097
:10002000000000000000000000000000AF14000805
:10003000B114000800000000B3140008B514000853
:100040003F1400083F1400083F140008751500080D
:100050003F1400083F1400083F1400083F14000834
:100060003F1400083F1400083F1400083F14000824
:100070003F1400083F1400083F1400083F14000814
:100080003F1400083F1400083F1400083F14000804
:100090003F1400083F1400083F1400083F140008F4
:1000A0003F1400083F1400083F1400083F140008E4
:1000B0003F1400083F1400083F1400083F140008D4
:1000C0003F1400083F1400083F1400083F140008C4
:1000D0003F1400083F1400083F1400083F140008B4
:1000E0003F140008891500083F14000800F002F8CA
:1000F00000F03CF80AA090E8000C82448344AAF186
:100100000107DA4501D100F031F8AFF2090EBAE883
:100110000F0013F0010F18BFFB1A43F0010318473B
:10012000B0150000D0150000103A24BF78C878C17F
:10013000FAD8520724BF30C830C144BF04680C60ED
:10014000704700000023002400250026103A28BF35
:1001500078C1FBD8520728BF30C148BF0B60704739
:100160001FB501F0AEFA1FBD10B510BD01F06DFA5C
:100170001146FFF7F5FF01F075F901F08BFA03B4B2
:10018000FFF7F2FF03BC01F095FA00000021002008
:10019000674A126842F48032654B1A6000BF644AB5
:1001A000126802F40030491C10B9B1F5A06FF6D105
:1001B0005F4A126812F4003F01D0012000E00020E5
:1001C000012842D15B4A126842F01002594B1A6072
:1001D0001A46126822F003021A601A46126842F0A8
:1001E00002021A60524A5268514B5A601A465268CB
:1001F0005A601A46526842F480625A601A4652683F
:1002000022F47C125A601A46526842F4E8125A608C
:100210001A46126842F080721A6000BF444A12689F
:1002200012F0007FFAD0424A526822F00302404B9B
:100230005A601A46526842F002025A6000BF3C4AB5
:10024000526802F00C02082AF9D1704710B5FFF786
:100250009DFF10BD10B53648006840F001003449DC
:1002600008600846406834490840314948600846FB
:100270000068324908402E4908600846006820F4AA
:10028000802008600846406820F4FE0048604FF473
:100290001F008860FFF7DAFF4FF000602849086010
:1002A00010BD10B5002100200022214B5B6803F037
:1002B0000C0121B1042906D0082928D107E0214BDF
:1002C000214C236027E01F4B1F4C236023E0184B79
:1002D0005B6803F47010164B5B6803F480320223F2
:1002E00003EB904022B9194B4343174C23600DE0B8
:1002F0000F4B5B6813F4003F04D0144B4343124C84
:10030000236003E00F4B43430F4C236003E00D4B8E
:100310000D4C236000BF00BF054B5B68C3F30313A4
:100320000B4CE15C084B1B68CB40074C236010BDB5
:1003300000100240002002400000FFF8FFFFF6FE20
:1003400008ED00E000127A000000002000093D00E6
:100350000400002036490143364A1160704770B5E9
:10036000002100230F22C4784CB3324C246804F4DB
:10037000E064C4F5E0644FEA1421C1F1040322FAF9
:1003800001F2447804FA03F1847804EA020444EAAE
:1003900001014FEA0111284C0678A155047804F0B8
:1003A0001F054FF0010404FA05F405784FEA6515BE
:1003B0004FF0E02606EB8505C5F8004109E004781A
:1003C00004F01F050124AC401C4D0678761145F859
:1003D000264070BD1A4A0A4002431A4B1A60704701
:1003E00041B1194A126842EA00024FF0E023C3F813
:1003F000102D07E0144A126822EA00024FF0E023B1
:10040000C3F8102D7047042808D14FF0E021096986
:1004100041F004014FF0E022116107E04FF0E021CC
:10042000096921F004014FF0E022116170470000DA
:100430000000FA050CED00E000E400E080E100E0DF
:1004400080FFFF1F08ED00E010ED00E010B5012077
:1004500000F011FC002000F00EFC10BD24490860E3
:100460007047244908607047234908607047014677
:100470000020224A10884FF67F4200EA020040EA3C
:1004800001001F4AA2F82C0C7047014600201B4AAD
:1004900010884FF6807200EA020040EA0100184A14
:1004A000A2F82C0C70470022144A2C3A0244116026
:1004B000704701460022114A2C3A0A4410887047BE
:1004C00010480068C0B270470F48008840F0010033
:1004D0000B49A1F8340C70470C480068C0B2704753
:1004E0000948008840F002000549A1F8340C704723
:1004F00004860D4200860D4288860D422C6C004019
:1005000000600040A0860D42346C0040A4860D427D
:1005100010B50446CA48844208D10121042000F0E5
:1005200090FB0021042000F08CFB46E0C54884428B
:1005300008D10121082000F084FB0021082000F0F0
:1005400080FB3AE0C048844208D10121102000F02D
:1005500078FB0021102000F074FB2EE0BB488442A1
:1005600008D10121202000F06CFB0021202000F0A8
:1005700068FB22E0B648844208D10121402000F007
:1005800060FB0021402000F05CFB16E0B148844293
:1005900008D10121802000F054FB0021802000F0D0
:1005A00050FB0AE0AC48844207D10121801500F0DD
:1005B00048FB0021A01500F044FB10BD10B501213F
:1005C000084600F03EFB0021012000F03AFB10BD80
:1005D0002DE9F041024600250026002000230024DA
:1005E000002791F803C00CF00F0591F803C01CF030
:1005F000100F03D091F802C04CEA0505B1F800C015
:100600001CF0FF0F31D0146800202BE04FF0010CDC
:100610000CFA00F3B1F800C00CEA03069E4220D1A8
:1006200083004FF00F0C0CFA03F7BC4305FA03FCF0
:100630004CEA040491F803C0BCF1280F06D14FF036
:10064000010C0CFA00FCC2F814C00AE091F803C0D7
:10065000BCF1480F05D14FF0010C0CFA00FCC2F8B8
:1006600010C0401C0828D1D31460B1F800C0BCF100
:10067000FF0F34DD546800202EE000F1080C4FF02D
:10068000010808FA0CF3B1F800C00CEA03069E4218
:1006900021D183004FF00F0C0CFA03F7BC4305FA8D
:1006A00003FC4CEA040491F803C0BCF1280F05D107
:1006B00000F1080C08FA0CF8C2F8148091F803C095
:1006C000BCF1480F07D100F1080C4FF0010808FAFF
:1006D0000CF8C2F81080401C0828CED35460BDE846
:1006E000F0814FF6FF710180022181700421C170F9
:1006F00070470246002093680B4201D0012000E0C1
:10070000002070470146886880B27047024600208A
:10071000D3680B4201D0012000E000207047014661
:10072000C86880B2704701617047416170470AB183
:10073000016100E041617047C16070474FF4803251
:100740000A438261816182618269826970470246DF
:100750000020424B18684FF68073184040EA0210A0
:1007600008433E4B186070473D49C8617047F0B57B
:100770000A46002300240021002500F00046B6F1BF
:10078000004F02D1354EF16901E0344E7168C0F37B
:10079000034583B200F44016B6F5401F08D121F09E
:1007A00070612E4E766826F070662C4F7E6012E0E7
:1007B00000F48016B6F5801F06D1032606FA05F46C
:1007C000A14341F0706106E0460D360103FA06F6DA
:1007D000B14341F0706122B1460D360103FA06F6CD
:1007E000314300F00046B6F1004F02D11B4EF161DB
:1007F00001E01A4E7160F0BD30B500228B071C0F6E
:100800000F2303FA04F2154B08338C1053F82430ED
:100810009343124C08348D1044F8253023468C1035
:1008200053F824308C07240F00FA04F423430B4CB4
:1008300008348D1044F8253030BD0A4908607047EF
:1008400000080140000C014000100140001401406C
:1008500000180140001C0140002001400000014040
:1008600000002042DC00204210B50121080700F002
:10087000F5F900214FF0805000F0F0F910BD2C493F
:10088000086270472A490861704701460020294ADA
:10089000106820F0E00008431060704726490860A7
:1008A000704710B502460020224B186820F0030064
:1008B00010431860214B1B6843F004034FF0E02401
:1008C000C4F8103D012901D130BF00E020BF1B4B0F
:1008D0001B6823F004034FF0E024C4F8103D10BD62
:1008E0001448006840F00400124908600846006897
:1008F00040F0020008601148006840F004004FF02A
:10090000E021C1F8100D00BF00BF30BF70470146A5
:100910000020084A52680A4201D0012000E000206D
:1009200070470449096841EA8001024A1160704732
:1009300000000E4200700040A0000E4210ED00E0EA
:10094000DB48006840F00100D9490860084640686B
:10095000D8490840D649486008460068D64908404A
:10096000D34908600846006820F4802008600846E3
:10097000406820F4FE0048604FF41F008860704714
:10098000CB49096821F48031C94A116011460968D0
:1009900021F480211160B0F5803F03D0B0F5802FA5
:1009A0000ED106E0C249096841F48031C04A1160A5
:1009B00007E0BF49096841F4A021BD4A116000E089
:1009C00000BF00BF704710B5014600220023002081
:1009D0004A11012A02D1B64C236806E0022A02D14C
:1009E000B34C236A01E0B24C636A01F01F02012498
:1009F00094401C4201D0012000E0002010BD70B5E1
:100A000000240025002600BF3120FFF7DCFF06464A
:100A1000641CB4F5A06F01D0002EF5D03120FFF793
:100A2000D2FF08B1012500E00025284670BD01462F
:100A300000209F4A106820F0F80040EAC1001060D2
:100A400070479E490860704702460020984B5868DE
:100A500020F47C1042EA01031843954B586070471C
:100A600096490866704701460020914A506820F078
:100A700003000843506070478D48406800F00C0048
:100A80007047014600208A4A506820F0F000084371
:100A90005060704701460020854A506820F4E060AD
:100AA00008435060704701460020814A506820F496
:100AB000605040EAC1005060704729B17C4A527AC8
:100AC00002437B4B5A7206E0794A527AC343DBB247
:100AD0001A40774B5A72704779490860704701464F
:100AE0000020734A506820F440400843506070472B
:100AF0000021744A11706E4A82F82010012802D039
:100B0000042808D103E001216E4A117004E0052198
:100B10006C4A117000E000BF00BF70476A4908606E
:100B200070476349096A0143614A11627047674926
:100B30000860704730B500210022002400235C4D7E
:100B40006D6805F00C0121B1042905D0082923D1D5
:100B500005E05F4D056022E05D4D05601FE0544DEE
:100B60006D6805F47012524D6D6805F480340225ED
:100B700005EB92421CB9574D554305600BE04C4DB7
:100B80006D6815F4003F03D0524D5543056002E0F7
:100B90004F4D5543056002E04D4D056000BF00BF5D
:100BA000434D6D6805F0F00109094B4D6B5C05681C
:100BB000DD4045603E4D6D6805F4E061090A464D33
:100BC0006B5C4568DD408560394D6D6805F46051AA
:100BD000C90A414D6B5C4568DD40C560344D6D68A8
:100BE00005F44041890B3D4D6B5CC568B5FBF3F5E1
:100BF000056130BD29B12E4A526902432C4B5A611E
:100C000004E02B4A52698243294B5A61704729B14B
:100C1000274A92690243264B9A6104E0244A92696A
:100C20008243234B9A61704729B1214AD26902431A
:100C30001F4BDA6104E01E4AD26982431C4BDA6121
:100C4000704729B11A4AD2680243194BDA6004E0AE
:100C5000174AD2688243164BDA60704729B1144AAA
:100C600012690243124B1A6104E0114A126982436D
:100C70000F4B1A6170471A49086070470F49C864E2
:100C800070470B49C87170470948406A40F080704E
:100C900007494862704701460020054A92680A42A7
:100CA00001D0012000E000207047014988727047A0
:100CB000001002400000FFF8FFFFF6FE0000424275
:100CC000D800424220100240800442423C0442428A
:100CD00000127A0000093D001400002024000020CA
:100CE0004004424239B1554A128842EA0002544B4C
:100CF000A3F8002809E0514A12886FEA00039BB26A
:100D000002EA03024E4BA3F8002870474D480088C2
:100D100040F010004A49A1F804087047494800888B
:100D20004FF6EF7100EA01004549A1F80408704749
:100D30000021454801884248B0F8180841EA0040BF
:100D4000704700B50246FFF7E1FF100C3F490880ED
:100D50003B49A1F81C28FFF7E1FF00BD00B50246A2
:100D6000FFF7D4FFC2F30340394908803449A1F8A2
:100D70000C28FFF7D3FF00BD00B50246FFF7C6FF02
:100D8000100C344908802E49A1F82428FFF7C6FF2B
:100D900000BD0020304909884FEA01714FEA113047
:100DA0002749B1F8141841EA0000704700BF2548F0
:100DB000008810F0200FFAD07047224800884FF6C4
:100DC000F77100EA01001E49A1F8040800BF1D48A0
:100DD000008810F0080FFAD0704701460020194A29
:100DE00012880A4201D0012000E000207047154916
:100DF00009886FEA000292B201EA0201104AA2F8E1
:100E000004187047014600200E4A128802EA0102C7
:100E1000D0B20B4AB2F800280A4202D008B1012031
:100E200000E000207047074909886FEA000292B28B
:100E300001EA0201024AA2F80418704700280040A3
:100E400000200040042800401C28004018280040D2
:100E500008280040202800401028004001460020BB
:100E6000FF4A106800F03800084310607047FC49E2
:100E7000096821F00801FA4A116011460968014326
:100E800011607047F649096821F01001F44A1160B9
:100E900011460968014311607047F248F049486003
:100EA000F14848607047EF48ED494860EE484860B7
:100EB0007047EB48006940F08000E94908617047DD
:100EC000E748006940F08000E54908617047042068
:100ED000E349C96801F00101012901D101200EE0B7
:100EE000DF49C96811F0040F01D0022007E0DC4996
:100EF000C96811F0100F01D0032000E004207047F2
:100F000000B502460423FFF7E2FF034603E0FFF7C4
:100F1000DEFF0346521E012B01D1002AF7D102B990
:100F20000523184600BD30B5044604254FF4302093
:100F3000FFF7E6FF0546042D17D1C948006940F0C8
:100F40000200C749086108464461006940F040005A
:100F500008614FF43020FFF7D3FF0546C048006911
:100F600041F6FD710840BE490861284630BD10B504
:100F700004244FF43020FFF7C3FF0446042C16D19D
:100F8000B748006940F00400B549086108460069A7
:100F900040F0400008614FF43020FFF7B1FF0446F5
:100FA000AF48006941F6FB710840AD490861204631
:100FB00010BD00B502460423FFF789FF034603E096
:100FC000FFF785FF0346521E012B01D1002AF7D1FE
:100FD00002B90523184600BD10B504244FF4302093
:100FE000FFF7E7FF0446042C16D19D48006940F046
:100FF00004009B4908610846006940F04000086110
:101000004FF43020FFF7D5FF04469548006941F6BC
:10101000FB71084092490861204610BD00209049AC
:10102000C96911F0020F01D0012000E000207047D3
:1010300030B5A5250424FFF7F1FF00B100254FF4DA
:101040003020FFF75DFF0446042C3BD185488449DE
:101050008860854888600846006940F02000086183
:101060000846006940F0400008614FF43020FFF767
:1010700047FF0446042C1CD17948006941F6DF7112
:101080000840774908610846006940F0100008618F
:10109000764805804FF40050FFF732FF0446052CD8
:1010A00010D06F48006941F6EF7108406C49086143
:1010B00008E0052C06D06A48006941F6EF71084047
:1010C00067490861204630BDF0B504460D46042648
:1010D0000027F002FFF714FF0646042E22D16048D5
:1010E000006940F001005E4908612580F002FFF7C9
:1010F00007FF0646042E0ED1A71C280C3880F002EC
:10110000FFF7FEFE06465648006941F6FE710840AC
:101110005349086106E05248006941F6FE710840F3
:101120004F4908613046F0BD70B504460D460426AF
:10113000F002FFF7E5FE0646042E11D1484800698B
:1011400040F00100464908612580F002FFF7D8FE13
:1011500006464348006941F6FE710840404908616F
:10116000304670BD70B505460E460424E002FFF718
:10117000C7FE0446042C17D13A48394988603A48DA
:1011800088600846006940F0100008612E80E00287
:10119000FFF7B6FE0446052C06D03148006941F63B
:1011A000EF7108402E490861204670BD2DE9F043DB
:1011B00004464FF6FF763746B046B1460425E44371
:1011C000E6B2C4F30727C4F307484FEA1469E802FC
:1011D000FFF796FE0546042D3ED12248204988603F
:1011E000214888600846006940F010000861FF2E21
:1011F00006D01F4806804FF40050FFF781FE0546D9
:10120000042D08D1FF2F06D01A4807804FF4005054
:10121000FFF776FE0546042D09D1B8F1FF0F06D081
:101220001548A0F80C88E802FFF76AFE0546042D71
:1012300009D1B9F1FF0F06D00F48A0F80E98E802C7
:10124000FFF75EFE0546052D06D00548006941F60C
:10125000EF710840024908612846BDE8F0830000AC
:101260000020024023016745AB89EFCD00F8FF1F46
:1012700008F8FF1F0AF8FF1F00F0FF1F30B50546F2
:1012800004244FF43020FFF73BFE0446042C41D1E8
:101290005F4860498860604888600846006940F09F
:1012A000200008610846006940F0400008614FF4E2
:1012B0003020FFF725FE0446042C22D15548006952
:1012C00041F6DF710840534908610846006940F063
:1012D000100008611DB100205049088002E0A520DF
:1012E0004E4908804FF43020FFF70AFE0446052CD3
:1012F00010D04848006941F6EF710840454908613F
:1013000008E0052C06D04348006941F6DF7108402B
:1013100040490861204630BDF0B505460E461746E7
:1013200004243B483B4988603B488860E002FFF763
:10133000E7FD0446042C19D13648006940F010003E
:101340003449086147F0F8003043284334490880A5
:101350004FF40050FFF7D4FD0446052C06D02D486D
:10136000006941F6EF7108402A4908612046F0BD46
:101370002848C069800870472648006A70470020E6
:101380002449096811F0200F01D0012000E000205D
:10139000704729B11F4A126902431E4B1A6104E0CB
:1013A0001C4A126982431B4B1A6170470146002098
:1013B000012908D1174AD26912F0010F01D001208A
:1013C00008E0002006E0134AD2680A4201D001205A
:1013D00000E0002070470F49C860704704200D49A5
:1013E000C96801F00101012901D101200EE009497C
:1013F000C96811F0040F01D0022007E00549C9684F
:1014000011F0100F01D0032000E00420704700000D
:101410002301674500200240AB89EFCD00F8FF1F94
:1014200002F8FF1F0948804709480047FEE7FEE72A
:10143000FEE7FEE7FEE7FEE7FEE7FEE7FEE7FEE784
:1014400004480549054A064B70470000550200084C
:10145000ED00000888000020880600208802002097
:101460008802002000F0A0F800F0D6F800F04FF855
:1014700011E0FFF75DFC00F001042246012106485F
:10148000FFF755F9FFF754FC00F001042246022152
:101490000148FFF74CF9ECE7000C0140704700BF32
:1014A000FEE700BFFEE700BFFEE700BFFEE77047B4
:1014B00070477047704710B501214FF0C050FFF7DB
:1014C000B3FB0120FFF7DBF9FEF7C0FF0120FFF7B8
:1014D0000FFB00BF4120FFF776FA0028FAD04FF447
:1014E0008070FFF71EFB0120FFF721FBFFF765FC73
:1014F000FFF75CFC47F6FF70FFF730FCFFF756FC88
:1015000000210120FFF7EEFBFFF750FC10BD10B5E6
:101510000420FEF7CEFFA0F52541A53907D0FFF73F
:10152000CAFF4AF2A5510420FEF7BDFF13E07B205D
:10153000FFF749FA10B97A20FFF745FA0120FFF7C3
:10154000F6FAFFF73AFCFFF731FC00210120FFF724
:10155000C9FBFFF72BFC01214FF0C050FFF764FBE4
:101560000120FFF78CF90020FEF77BFF8020FEF7BB
:101570007EFF10BD10B50120FFF744FC0120FFF7EE
:1015800052FCFFF713FC10BD10B50220FFF73AFC28
:101590000220FFF748FCFFF709FC10BD10B54FF41F
:1015A000A060FEF7D7FE10BD10B5FFF7C9F94FF4E4
:1015B0008030FFF7E5F9FFF722FA0446012C24D129
:1015C0004FF4E0110004FFF73FFA0020FFF759FA4B
:1015D000A002FFF75FFA0020FFF765FA0220FFF78D
:1015E0003DFC1020FFF74EFC0120FFF739FA00BF49
:1015F0003920FFF7E8F90028FAD00220FFF733FA84
:1016000000BFFFF739FA0828FBD1012144F27C0022
:10161000FFF7FDFA10BD000008B501210820FFF713
:10162000F6FA0320ADF8000010208DF80300032027
:101630008DF8020069460248FEF7CAFF08BD0000A7
:10164000000C0140704770477047754600F028F85D
:10165000AE4605006946534620F00700854618B09F
:1016600020B5FFF7EDFEBDE820404FF000064FF03B
:1016700000074FF000084FF0000B21F00701AC46C7
:10168000ACE8C009ACE8C009ACE8C009ACE8C009E6
:101690008D4670470446AFF300802046FEF76FFD8D
:1016A000004870472800002001487047704700BF7D
:1016B0002C00002001491820ABBEFEE726000200E6
:1016C000704710B5FFF7F0FF4FF00001016010BD4B
:1016D000F016000800000020280000002801000883
:1016E00018170008280000206006000044010008C8
:1016F00000A24A04000000000000000001020304F0
:1017000006070809000000000102030401020304A7
:0817100006070809020406089F
:04000005080000ED02
:00000001FF
