:020000040800F2
:100000005007002099010008F5070008B307000811
:10001000F1070008610600083F1400080000000016
:100020000000000000000000000000001D1000089B
:1000300065060008000000007508000809110008A6
:10004000B3010008B3010008B3010008E10E000885
:10005000B3010008B3010008B3010008B3010008B0
:10006000B3010008B3010008B3010008B3010008A0
:10007000B3010008B3010008B3010008B301000890
:10008000B3010008B3010008B3010008B301000880
:10009000B3010008B3010008B3010008B301000870
:1000A000B3010008B3010008B3010008B301000860
:1000B000B3010008B3010008B3010008B301000850
:1000C000B3010008B3010008B3010008B301000840
:1000D000B30100086D110008B3010008B301000866
:1000E000B3010008FD0B0008B301000800F002F89E
:1000F00000F042F80AA090E8000C82448344AAF180
:100100000107DA4501D100F037F8AFF2090EBAE87D
:100110000F0013F0010F18BFFB1A43F0010318473B
:10012000B4180000D4180000103A24BF78C878C171
:10013000FAD8520724BF30C830C144BF04680C60ED
:10014000704700000023002400250026103A28BF35
:1001500078C1FBD8520728BF30C148BF0B60704739
:10016000642900F07180632900F0EE81002070475F
:100170001FB51FBD10B510BD00F008FA1146FFF7FE
:10018000F7FF01F075F900F026FA03B4FFF7F2FF6C
:1001900003BC01F05DF900000948804709480047A9
:1001A000FEE7FEE7FEE7FEE7FEE7FEE7FEE7FEE727
:1001B000FEE7FEE704480549054A064B7047000084
:1001C0000D110008ED00000850010020500700202C
:1001D0005003002050030020704700000FB4044972
:1001E00010B503AA029800F0BBF910BC5DF814FB2F
:1001F0001C00002070B50C460546012A05D0287861
:10020000800600D5EA69002302E0012305E05B1CBB
:10021000934202D2E05C0028F9D1A869E618C01A1E
:10022000A861286A184428622846AFF3008004E0D9
:10023000D5E9012114F8010B9047B442F8D32846C0
:10024000AFF3008070BD00002DE9F04106460024A8
:1002500010687529314616A510D0AFF3008000282C
:1002600002DA404213A507E031688A0701D512A5DA
:1002700002E0490704D511A5012401E0AFF3008095
:1002800000210A2206F1240709E0B0FBF2FCB0FBD2
:10029000F2F302FB1C00303078541846491C002849
:1002A000F3D123462A463046BDE8F04100F0D0B8ED
:1002B000000000002D0000002B00000020000000C6
:1002C0002DE9F05F894604464FF0000ADFF874B16B
:1002D000FB44C0F820A02046E1688847002874D07D
:1002E000252806D0D4E901219047206A401C2062CD
:1002F000F1E700265F462046E1688847202805464A
:1003000007DB312D05D2781910F8200C08B106430F
:10031000F1E7B00701D526F00406C4F81CA00027B9
:10032000C4F818A02A2D09D0284601F08AF838B35D
:1003300004EB8708303DC8F8185019E059F8041B41
:10034000204604EB87029161E1688847012F05464A
:1003500018D1E069002820DA26F020061DE0D8F840
:10036000180000EB800005EB40003038C8F818009A
:100370002046E1688847054601F063F80028EED181
:10038000012F0AD02E2D08D12046E16888477F1C16
:100390000546022F46F02006C4DBA069002803DAD8
:1003A000404246F00106A061F00701D026F0100699
:1003B0006C2D0BD0682D09D04C2D39D06A2D35D03D
:1003C000742D35D07A2D33D016E038E0E1682F4611
:1003D00020468847B842054609D16C2F26D04FF4F5
:1003E0008060E168064320468847054604E06C2F9C
:1003F0001AD04FF4807006430DB3A5F141001928BF
:1004000002D8203546F400664A4629462046266032
:100410004E46FFF7A5FE80B101280BD0F61D26F051
:10042000070000F1080956E74020E4E78020D8E7FC
:100430000020D6E706F104094DE7284652E7206A76
:10044000BDE8F09FEC16000070477047704770479A
:100450002DE9F0470D4699469246044600F12408DE
:100460000168880604D5E06921F01001216000E0F0
:100470000120A84201DD471B00E00027A1697A198D
:1004800002EB0900081AA0612078C00602D42046B9
:10049000AFF30080002608E0D4E901211AF8060035
:1004A0009047206A401C761C20624E45F4DB207881
:1004B000C0060AD52046AFF3008006E0D4E901214A
:1004C00030209047206A401C2062381EA7F10107A7
:1004D000F4DC07E0D4E9012118F805009047206A10
:1004E000401C2062281EA5F10105F3DC2046AFF375
:1004F00000802078000602D50220BDE8F0870120A8
:10050000FBE7000001694A1C02610878704700B5EA
:100510008FB0CDE901310021059105497944CDE93C
:10052000031011466846FFF7CBFE0FB000BD000078
:10053000E5FFFFFF10B5436913B1AFF3008001E0A1
:10054000FFF758FE012010BD127800F124010A7057
:1005500000224A700122EDE711684FF0FF32E9E70F
:10056000074B70B50D467B44FFF7D1FF0446284684
:1005700000F008F810B14FF0FF3070BD204670BD9C
:10058000EB0E0000007B00F080007047754600F025
:100590002BF8AE4605006946534620F00700854615
:1005A00018B020B5FFF706FEBDE820404FF000066A
:1005B0004FF000074FF000084FF0000B21F007014B
:1005C000AC46ACE8C009ACE8C009ACE8C009ACE88E
:1005D000C0098D46704710B50446AFF30080204631
:1005E000BDE81040FFF7D1BD00487047EC00002087
:1005F00010B5012000F060F9002000F05DF910BD99
:1006000001460020044A10884FF67F4210400843FC
:10061000014A1080704700002C6C004008B501466C
:100620000020009003480090009808440090009833
:10063000008808BD006C0040014908607047000058
:1006400000860D4208B500220092044A0092009AEA
:1006500002440092009A116008BD0000006C004046
:1006600000BFFEE7704700000549096821F010014E
:10067000034A116011460968014311607047000088
:100680000020024001460020034A106800F03800B4
:100690000843106070470000002002402DE9F0413F
:1006A000024600250026002000230024002791F8A0
:1006B00003C00CF00F0591F803C00CF0100CBCF156
:1006C000000F03D091F802C04CEA050591F800C074
:1006D000BCF1000F31D0146800202BE04FF0010C6A
:1006E0000CFA00F3B1F800C00CEA03069E4220D1D8
:1006F00083004FF00F0C0CFA03F7BC4305FA03FC20
:100700004CEA040491F803C0BCF1280F06D14FF065
:10071000010C0CFA00FCC2F814C00AE091F803C006
:10072000BCF1480F05D14FF0010C0CFA00FCC2F8E7
:1007300010C0401C0828D1D31460B1F800C0BCF12F
:10074000FF0F34DD546800202EE000F1080C4FF05C
:10075000010808FA0CF3B1F800C00CEA03069E4247
:1007600021D183004FF00F0C0CFA03F7BC4305FABC
:1007700003FC4CEA040491F803C0BCF1280F05D136
:1007800000F1080C08FA0CF8C2F8148091F803C0C4
:10079000BCF1480F07D100F1080C4FF0010808FA2E
:1007A0000CF8C2F81080401C0828CED35460BDE875
:1007B000F08100BFFEE70146CA1701EB927292106A
:1007C000A1EB820292B9642091FBF0F200FB1210BF
:1007D00050B94FF4C87091FBF0F200FB121008B949
:1007E000012070470020FCE70120FAE70020F8E72D
:1007F00000BFFEE77047000070B5002100230F2204
:10080000C47804B3154C246804F4E064C4F5E064CF
:10081000210AC1F10403CA40447804FA03F1847840
:100820001440214309010E4C0678A155047804F0C8
:100830001F050124AC4005786D11AD0005F1E025E0
:10084000C5F8004109E0047804F01F050124AC401C
:10085000044D0678761145F8264070BD0CED00E099
:1008600000E400E080E100E0014908627047000018
:1008700000000E427047000029B1064AD2690243C7
:10088000044BDA6104E0034AD2698243014BDA6126
:10089000704700000010024029B1064A92690243E5
:1008A000044B9A6104E0034A92698243014B9A61C6
:1008B00070470000001002400149086070470000C6
:1008C0004004424210B500F035F84FF4803000F09B
:1008D000F3F800F077F90446012C24D14FF4E0112D
:1008E000000400F047F9002000F0DAF8A00200F060
:1008F00023F9002000F02CF90220FFF7C3FE10209E
:10090000FFF7B2FE012000F02FF900BF392000F000
:10091000A1F80028FAD0022000F048F900BF00F04A
:10092000B7F80828FBD1012144F27C00FFF7B4FF9F
:1009300010BD00000F48006840F001000D4908603C
:10094000084640680C4908400A4948600846006863
:100950000A490840074908600846006820F48020DA
:1009600008600846406820F4FE0048604FF41F000D
:1009700088607047001002400000FFF8FFFFF6FE9D
:1009800030B500210022002400232D4D6D6805F0B4
:100990000C0121B1042905D0082923D105E0294DF6
:1009A000056022E0274D05601FE0254D6D6805F4C8
:1009B0007012234D6D6805F48034022505EB9242D8
:1009C0001CB9214D554305600BE01D4D6D6805F4C4
:1009D00000351DB11C4D5543056002E0194D5543CE
:1009E000056002E0174D056000BF00BF144D6D6843
:1009F00005F0F0010909154D6B5C0568DD404560A7
:100A00000F4D6D6805F4E061090A104D6B5C456897
:100A1000DD4085600A4D6D6805F46051C90A0B4DD3
:100A20006B5C4568DD40C560054D6D6805F440416F
:100A3000890B074D6B5CC568B5FBF3F5056130BDEF
:100A40000010024000127A0000093D000000002062
:100A50001000002010B501460022002300204A119A
:100A6000012A02D1094C236806E0022A02D1074C70
:100A7000236A01E0054C636A01F01F0201249440DF
:100A80001C400CB1012000E0002010BD001002400D
:100A90000248406800F00C0070470000001002405F
:100AA00001460020034A506820F0F00008435060DF
:100AB00070470000001002401149096821F480319C
:100AC0000F4A11601146096821F480211160B0F5C8
:100AD000803F03D0B0F5802F0ED106E008490968A9
:100AE00041F48031064A116007E00549096841F484
:100AF000A021034A116000E000BF00BF7047000062
:100B00000010024000210B4A11700A4A203A82F874
:100B10002010012802D0042808D103E00121054A51
:100B2000117004E00521034A117000E000BF00BF0E
:100B3000704700002010024001460020034A506820
:100B400020F4E0600843506070470000001002404D
:100B500001460020034A506820F4605040EAC1007A
:100B6000506070470010024001490866704700005D
:100B70000000424202460020044B586820F47C10DA
:100B800042EA01031843014B5860704700100240CD
:100B900001490860704700003C0442420249096A6A
:100BA0000143014A116270470010024001460020D3
:100BB000034A506820F0030008435060704700006B
:100BC0000010024038B5002000900024002500BF2E
:100BD0003120FFF73FFF05460098401C0090009829
:100BE000B0F5A06F01D0002DF2D03120FFF732FF19
:100BF00008B1012400E00024204638BD10B50220D1
:100C000000F020F900F0EEF9022000F003F800F007
:100C1000E9F910BD024909888143014A11807047F2
:100C20000428004010B50420FFF7F8FC4AF2A55153
:100C3000884207D000F03EF84AF2A5510420FFF7A1
:100C400001FD13E07B20FFF705FF10B97A20FFF7C5
:100C500001FF0120FFF79CFF00F0CEF900F0C2F980
:100C60000021012000F048F900F0BCF901214FF00B
:100C7000C050FFF701FE0120FFF7F6FD0020FFF74F
:100C8000DBFC8020FFF7BCFC10BD0000034800889F
:100C900040F010000149088070470000042800401F
:100CA000034800884FF6EF710840014908807047FB
:100CB0000428004010B501214FF0C050FFF7DCFDC3
:100CC0000120FFF7D1FDFFF793FC0120FFF71AFF8A
:100CD00000BF4120FFF7BEFE0028FAD04FF480701D
:100CE000FFF75CFF0120FFF753FF00F085F900F0EC
:100CF00079F90021012000F0FFF800F073F910BD30
:100D000070B500F095F806464048B6FBF0F4002CAC
:100D10003AD040F2B2750EE02846FFF74CFD30B1F4
:100D2000B4F5B77F02D3A4F5B77402E006E0A4F2ED
:100D30006D14681C85B2B4F5B67FEDD800BF344899
:100D40000580012517E032480088FFF734FD30B1F7
:100D5000022D04D11D2C01D31D3C0AE00DE0681EBC
:100D60002C49085CA04203D8681E085C241A00E0E5
:100D700003E0681C85B21C2CE5D200BF26490D702B
:100D8000601C2649087008E040F2B27020490880D3
:100D9000012021490870214908701C48B6FBF0F178
:100DA00000FB11604FF46161B0FBF1F01C49087069
:100DB0001648B6FBF0F100FB11604FF46161B0FB27
:100DC000F1F201FB12003C21B0FBF1F01549087073
:100DD0000E48B6FBF0F100FB11604FF46161B0FB0F
:100DE000F1F201FB12003C21B0FBF1F201FB120019
:100DF0000D490870094802780748017804480088BE
:100E000000F032F809490870002070BD80510100DF
:100E100014000020A8190008160000201700002068
:100E200018000020190000201A0000201B000020DC
:100E3000002103480188001F008841EA00407047F4
:100E40001C28004001460020064A12880A40D0B201
:100E5000044A121F12880A4012B108B1012000E0B2
:100E60000020704704280040F0B503460C461546A4
:100E7000642093FBF0F0C6B2642093FBF0F700FB14
:100E80001730C1B2132E02DD01F16400C1B2084671
:100E9000CF1701EB977701EBA707BAB2072092FBB8
:100EA000F0F700FB172082B25719601EDFF82CC044
:100EB0001CF80000384482B2CF1701EB9777BF10BF
:100EC000A1EB87071FB9032C01DA501C82B207205F
:100ED00092FBF0F700FB1720C0B2F0BDB419000878
:100EE00010B50120FFF7AEFF00F07CF80120FFF7FE
:100EF00091FE00F077F810BD29B1064A128802432E
:100F0000044B1A8004E0034A12888243014B1A8082
:100F100070470000002800402DE9F05F06460F46AC
:100F200090469946DDE90AAB0024B6F5FA6F03DB7B
:100F300040F63300864202DD0120BDE8F09F40F21A
:100F4000B27509E01D4804442846FFF734FC08B197
:100F50001B480444681C85B2B542F3DB012511E04F
:100F6000681E1849085C40F2A321484304EBC014F2
:100F70003046FFF720FC18B1022D01D1104804447F
:100F8000681C85B2BD42EBDBA8F1010040F2A32151
:100F9000484304EBC014C9EB4910C0EB092004EB33
:100FA0000014CAEB0A1004EB80045C44204600F0F5
:100FB0000BF800F017F80020BFE700008033E101D4
:100FC00080510100A819000800B50246FFF75EFE37
:100FD000100C03490880091D0A80FFF761FE00BD5F
:100FE0001828004000BF0348008800F020000028B7
:100FF000F9D0704704280040074800884FF6F77181
:1010000008400549088000BF0348008800F0080038
:101010000028F9D07047000004280040704710B540
:1010200000F002F810BD00000CB500200190009007
:101030003348006840F480303149086000BF3048D0
:10104000006800F4003000900198401C0190009866
:1010500018B90198B0F5A06FF1D12948006800F4E3
:10106000003010B10120009001E0002000900098B5
:10107000012843D12348006840F01000214908604E
:101080000846006820F0030008600846006840F049
:10109000020008601A4840681949486008464068DC
:1010A00048600846406840F48060486008464068F0
:1010B00020F47C1048600846406840F4E81048601E
:1010C0000846006840F08070086000BF0C48006867
:1010D00000F000700028F9D00948406820F00300B3
:1010E000074948600846406840F00200486000BF79
:1010F0000348406800F00C000828F9D10CBD00003E
:1011000000100240002002407047000010B5134854
:10111000006840F001001149086008464068104925
:1011200008400E494860084600680E4908400B49CF
:1011300008600846006820F480200860084640687F
:1011400020F4FE0048604FF41F008860FFF767FF3F
:101150004FF000600449086010BD0000001002401C
:101160000000FFF8FFFFF6FE08ED00E010B540F2CA
:101170002551204800F0A2F800283AD01D4800F080
:1011800059F9C4B221461CA0FFF728F81B48008873
:1011900000F4004068BB1948008800F4804060B14A
:1011A0000A2C06D11548008840F4004013490880F5
:1011B0001FE00020114908801BE00D2C06D10F48CC
:1011C000008840F480400D49088012E00B480188F7
:1011D0000088401C094A1080C1F30D0008490C54D6
:1011E00010460088C0F30D00C72802DD002011461C
:1011F000088010BD00380140256300002000002059
:101200002400002010B586B00446012144F20400F9
:10121000FFF742FB4FF40070ADF8140018208DF872
:10122000170003208DF8160005A91C48FFF736FAB1
:101230004FF48060ADF8140004208DF8170005A964
:101240001648FFF72BFA25208DF8000003208DF8B3
:1012500001008DF8020001208DF803006846FFF7B9
:10126000CBFA01940020ADF80800ADF80A00ADF803
:101270000C00ADF810000C20ADF80E0001A90848D4
:1012800000F06CF8012240F22551054800F040F8CA
:101290000121034800F006F806B010BD0008014027
:1012A0000038014021B1828942F40052828104E079
:1012B00082894DF6FF731A408281704770B50246ED
:1012C000002400230025002040F66A16B14200D118
:1012D00000BFC1F3421501F01F03012606FA03F314
:1012E000012D02D19689334006E0022D02D1168AE3
:1012F000334001E0968A33400C12012606FA04F4CA
:101300001688344013B10CB1012000E0002070BDFC
:10131000F0B50346002400260025002040F66A1799
:10132000B94200D100BF1846C1F3421401F01F06B4
:10133000012707FA06F5012C01D10C3004E0022C3C
:1013400001D1103000E014301AB107682F43076054
:1013500002E00768AF430760F0BD00002DE9F047E9
:1013600086B005460E460024A24600BFA1460027CF
:10137000B08900B100BF2F462C8A4CF6FF700440A4
:10138000F08804432C82AC894EF6F3100440B088F8
:1013900031890843718908430443AC81AC8A4FF614
:1013A000FF400440B0890443AC8201A8FFF7E8FA8B
:1013B0001F48874202D1DDF810A001E0DDF80CA043
:1013C000A88900F4004040B10AEBCA0000EB0A1003
:1013D00031684900B0FBF1F807E00AEBCA0000EB06
:1013E0000A1031688900B0FBF1F86420B8FBF0F016
:1013F00004012009642101FB1089A88900F4004040
:1014000040B1322000EBC900B0FBF1F000F0070062
:10141000044308E0322000EB09106421B0FBF1F036
:1014200000F00F0004432C8106B0BDE8F0870000F7
:101430000038014001468888C0F30800704700BFAB
:10144000FEE730380A2801D201207047002070479B
:1014500000BF704700BF054A128802F04002002A10
:10146000F9D0C2B2014B1B1D1A80704700380140F1
:1014700086B0DAA207CA03AB07C3FFF723FAFFF768
:10148000D1FB4FF4E130FFF7BDFE4FF44040D649A9
:101490000880A1E1D448008800F440400028F8D03A
:1014A000D1480088C0F30D00002853D1FFF728FC75
:1014B00000284BD1CDA0FEF791FED6480078D64942
:1014C0000978D64A1278CDE900210290D4480378F1
:1014D000D4480278D4480188D4A0FEF77FFEDC48C7
:1014E000007810B9DBA0FEF779FED9480078012812
:1014F00002D1DBA0FEF772FED5480078022802D1A7
:10150000DAA0FEF76BFED2480078032802D1DAA0F9
:10151000FEF764FECE480078042802D1D9A0FEF779
:101520005DFECB480078052802D1D9A0FEF756FE13
:10153000C7480078062802D1D8A0FEF74FFEDAA0EF
:10154000FEF74CFEE3A0FEF749FE42E1EFA0FEF7F6
:1015500045FE3EE1A4480088C0F30D00012816D1E5
:10156000EE480078632803D0EC48007843280AD17D
:10157000FFF7A0FB4AF2A5510420FFF763F8E8A0AB
:10158000FEF72CFE25E1EAA0FEF728FE21E19648B1
:101590000088C0F30D000E287ED1002401E0601CFD
:1015A000C4B20E2C07DADD48005D302803DBDB48CF
:1015B000005D3928F3DD0E2C6FD1D8480078303823
:1015C0004FF47A714843D5494978303901EBC1026B
:1015D00002EB011100EB8101D0488078303800EB3C
:1015E000800001EB4001CD48C078303808448E4976
:1015F0000880CA4840793038C8490979303901EB48
:10160000810100EB410087490870C448C079303837
:10161000C2498979303901EB810100EB41008049F1
:101620000870BE48407A3038BC49097A303901EB3D
:10163000810100EB410079490870B848C07A303820
:10164000B649897A303901EB810100EB41007249DA
:101650000870B248407B3038B049097B303901EB23
:10166000810100EB41006B4908706F48008840F22F
:10167000B271884273DB6C48008840F633018842BF
:101680006DDC684800780128F4DB664800780C2897
:10169000F6DC6348007801E098E093E00128E9DB9C
:1016A0005F4800781F28EBDC5C4800781728E7DCEF
:1016B000594800783B28E3DC564800783B287DDC1D
:1016C00059480088FFF777F8002851D0554800782E
:1016D000022826D153480078401E03A9085C401C0C
:1016E0004F490978884218DB4A4800784A49097806
:1016F000CDE9001049480378494802784948017803
:1017000049480088FFF708FC18B98DA0FEF766FD70
:101710005FE091A0FEF762FD5BE095A0FEF75EFD45
:1017200057E040480078401E03A9085C3C4909780E
:10173000884219DB3748007837490978CDE900102D
:1017400036480378364802783648017836480088AB
:10175000FFF7E2FB20B97AA0FEF740FD39E02DE06B
:101760007DA0FEF73BFD34E081A0FEF737FD30E0C1
:101770002C480078401E03A9085C29490978884252
:1017800018DB2448007824490978CDE90010234863
:101790000378234802782348017823480088FFF71C
:1017A000BBFB18B966A0FEF719FD12E06AA0FEF7B0
:1017B00015FD0EE06EA0FEF711FD0AE06CA0FEF72D
:1017C0000DFD06E06AA0FEF709FD02E06FA0FEF73E
:1017D00005FD0020044908805CE600001F1C1F1E58
:1017E0001F1E1F1F1E1F1E1F2000002020D1F3CC14
:1017F000D2BFAAB7A2B0E553544D3332CAB5CAB16D
:10180000CAB1D6D3B2E2CAD4B3CCD0F22020200DD4
:101810000A0000001A000020190000201800002013
:1018200017000020160000201400002020CFD6D47E
:10183000DACAB5CAB1CAB1BCE4A3BA25642D25641D
:101840002D25642025643A25643A25642020000073
:101850001B000020D0C7C6DAC8D52020200D0A0002
:10186000D0C7C6DAD2BB2020200D0A00D0C7C6DA06
:10187000B6FE2020200D0A00D0C7C6DAC8FD202001
:10188000200D0A00D0C7C6DACBC42020200D0A00E4
:10189000D0C7C6DACEE52020200D0A00D0C7C6DAB0
:1018A000C1F92020200D0A0020B5A5B0B4BBD8B3E3
:1018B000B5BCFCB8FCD0C2CAB1BCE4A1A3CAE4C8A0
:1018C000EBD7D6C4B843B3F5CABCBBAFCAB1D6D305
:1018D000200D0A0020C7EBCAE4C8EBC9E8D6C3CA8A
:1018E000B1BCE42CB8F1CABD3230313730383036B3
:1018F0003132303030302CB0B4BBD8B3B5BCFCC8BA
:10190000B7B6A8A3A1200D0A00000000BBF1C8A132
:10191000CAA7B0DCA3A10D0A00000000240000202B
:10192000B3F5CABCBBAFB3C9B9A6A3A10D0A0000E9
:10193000B3F5CABCBBAFCAA7B0DCA3A10D0A0000B7
:10194000C9E8D6C3B3C9B9A6A3A12020202020206E
:10195000202020200D0A0000C9E8D6C3CAA7B0DCA9
:10196000A3A1202020202020202020200D0A0000DC
:10197000CAE4C8EBCAFDBEDDD3D0CEF3A3A12020BC
:1019800020202020202020200D0A0000D6B8C1EE03
:10199000CAE4C8EBD3D0CEF3A3A12020202020207E
:1019A000202020200D0A00001F1C1F1E1F1E1F1FAD
:1019B0001E1F1E1F00030306010406020500030587
:1019C0000400000800000000000000020001000008
:1019D00010000000F419000800000020240000009E
:1019E00028010008181A0008240000202C07000015
:1019F0004401000800000000010203040102030486
:101A000006070809020406080000000000000000A4
:081A10000000000000000000CE
:04000005080000ED02
:00000001FF
