:020000040800F2
:100000007806002089010008470700083F0400081F
:1000100043070008A7020008ED0C000800000000DC
:100020000000000000000000000000009D0B000820
:10003000AB0200080000000091080008890C0008CD
:10004000A3010008A3010008A3010008A301000800
:10005000A3010008A3010008A3010008A3010008F0
:10006000A3010008A3010008A3010008A3010008E0
:10007000A3010008A3010008A3010008A3010008D0
:10008000A3010008A3010008A3010008A3010008C0
:10009000A3010008A3010008A3010008A3010008B0
:1000A000A3010008A3010008A3010008A3010008A0
:1000B000A3010008A3010008A3010008A301000890
:1000C000A3010008A3010008A3010008A301000880
:1000D000A3010008A3010008A3010008A301000870
:1000E000A3010008A3010008A301000800F002F822
:1000F00000F03AF80AA090E8000C82448344AAF188
:100100000107DA4501D100F02FF8AFF2090EBAE885
:100110000F0013F0010F18BFFB1A43F0010318473B
:10012000F817000018180000103A24BF78C878C1EA
:10013000FAD8520724BF30C830C144BF04680C60ED
:10014000704700000023002400250026103A28BF35
:1001500078C1FBD8520728BF30C148BF0B60704739
:100160001FB51FBD10B510BD00F063F81146FFF7B5
:10017000F7FF00F0BDFD00F081F803B4FFF7F2FFD8
:1001800003BC00F089F8000009488047094800478F
:10019000FEE7FEE7FEE7FEE7FEE7FEE7FEE7FEE737
:1001A000FEE7FEE704480549054A064B7047000094
:1001B0008D0C0008ED000008780000207806002073
:1001C000780200207802002010B5203AC0F00B80A1
:1001D000B1E81850203AA0E81850B1E81850A0E84B
:1001E0001850BFF4F5AF5FEA027C24BFB1E81850A5
:1001F000A0E8185044BF18C918C0BDE810405FEA15
:10020000827C24BF51F8043B40F8043B08BF704790
:10021000D20728BF31F8023B48BF11F8012B28BF95
:1002200020F8023B48BF00F8012B70477047704729
:100230007047754600F02CF8AE46050069465346F7
:1002400020F00700854618B020B5FFF7ABFFBDE8EA
:1002500020404FF000064FF000074FF000084FF02D
:10026000000B21F00701AC46ACE8C009ACE8C009BE
:10027000ACE8C009ACE8C0098D46704710B504462B
:10028000AFF300802046BDE81040FFF776BF0000C6
:10029000004870471400002001491820ABBEFEE75B
:1002A00026000200704700BFFEE7704700B5034616
:1002B00003E04FF47A7000F006F8181EA3F1010174
:1002C0008BB2F6D100BD00EBC001C9004FF0E022B7
:1002D0005161002191610521116100BF4FF0E021C2
:1002E000096901F480310029F8D004214FF0E0229F
:1002F000116170470549096821F01001034A116036
:100300001146096801431160704700000020024057
:1003100001460020034A106800F0380008431060CE
:1003200070470000002002402DE9F0410246002500
:100330000026002000230024002791F803C00CF0C1
:100340000F0591F803C00CF0100CBCF1000F03D0A6
:1003500091F802C04CEA050591F800C0BCF1000F0D
:1003600031D0146800202BE04FF0010C0CFA00F3A0
:10037000B1F800C00CEA03069E4220D183004FF082
:100380000F0C0CFA03F7BC4305FA03FC4CEA040417
:1003900091F803C0BCF1280F06D14FF0010C0CFA04
:1003A00000FCC2F814C00AE091F803C0BCF1480F89
:1003B00005D14FF0010C0CFA00FCC2F810C0401C33
:1003C0000828D1D31460B1F800C0BCF1FF0F34DDB0
:1003D000546800202EE000F1080C4FF0010808FAE4
:1003E0000CF3B1F800C00CEA03069E4221D1830051
:1003F0004FF00F0C0CFA03F7BC4305FA03FC4CEA70
:10040000040491F803C0BCF1280F05D100F1080CD9
:1004100008FA0CF8C2F8148091F803C0BCF1480F38
:1004200007D100F1080C4FF0010808FA0CF8C2F8E7
:100430001080401C0828CED35460BDE8F08100BF76
:10044000FEE700001FB50121480500F023FA00F087
:1004500021F80020ADF804004BF6FF70ADF806005F
:10046000C020ADF808004FF48060ADF80A0000012C
:10047000ADF80C00054800906946054800F0E0F82A
:100480000121034800F0B7F81FBD0000400D030034
:100490000054004008B50121082000F00BFAC020EC
:1004A000ADF800001C208DF8030003208DF8020039
:1004B00069460248FFF738FF08BD0000000C014004
:1004C0002DE9F04105460F4614461E4601211D4800
:1004D00000F09DF800BF1C491A4800F077F800288A
:1004E000F9D000222946174800F020F900BF17492B
:1004F000144800F06BF80028F9D03946114800F094
:100500001EF900BF1149891C0E4800F05FF8002851
:10051000F8D00CE014F8011B0A4800F010F900BFF5
:100520000A49891C074800F051F80028F8D0301E0D
:10053000A6F101018EB2EDD10121024800F073F85D
:10054000BDE8F08100540040010003008200070074
:1005500070B504460E4615460121194800F057F8BB
:1005600000BF1849164800F031F80028F9D00022E1
:100570002146134800F0DAF800BF1349104800F094
:1005800025F80028F9D031460D4800F0D8F800BF12
:100590000D49891C0A4800F019F80028F8D02946AE
:1005A000074800F0CCF800BF0749891C044800F058
:1005B0000DF80028F8D00121014800F034F870BD92
:1005C00000540040010003008200070070B502469D
:1005D0000024002500230020958A138B1B0445EA84
:1005E000030626F07F4404EA01068E4201D1012071
:1005F00000E0002070BD21B1028842F001020280BB
:1006000004E002884FF6FE731A400280704721B161
:10061000028842F48072028004E002884FF6FF6391
:100620001A400280704721B1028842F400720280B1
:1006300004E002884FF6FF531A4002807047000022
:100640002DE9F04385B004460D460026B146042747
:10065000DFF8CC80A6884FF6C0700640684600F0F0
:1006600093F9DDF808802F48B8FBF0F01FFA80F905
:1006700046EA0906A68020884FF6FE7108402080D1
:1006800000262949286888420CD828684000B8FB11
:10069000F0F087B2042F00DA04273E4309F101008D
:1006A000208427E0E8884BF6FF71884206D128684D
:1006B00000EB4000B8FBF0F087B209E0286800EBDF
:1006C000C00101EB0010B8FBF0F087B247F480479F
:1006D000C7F30B0008B947F0010747F40040064391
:1006E0004FF4967009FB00F04FF47A7190FBF1F033
:1006F000401C2084A683208840F0010020802688AA
:100700004FF6F5300640A8886989084306432680DD
:10071000A88929890843208105B0BDE8F08300003D
:1007200000127A0040420F00A086010012B141F091
:10073000010102E04FF6FE73194001827047018209
:10074000704700BFFEE7704770B5B0241BE022463B
:1007500000217820FFF7FCFE102200217820FFF70F
:10076000F7FE002211467820FFF7F2FE002506E092
:10077000002240217820FFF7EBFE681CC5B2842DD3
:10078000F6DB601CC4B2B82CE1DB70BD10B500F024
:1007900005F8FFF7D9FF00F00FF810BD08B505A068
:1007A0000068009003236A4600217820FFF788FE46
:1007B00008BD0000AE8D100000B587B01C2206A158
:1007C0006846FFF701FD1C236A4600217820FFF7E9
:1007D00077FE07B000BD0000AE0010D580A83FD363
:1007E00000B0408D14A1C8DA1281FFD9F1DB3020AE
:1007F00000A4A6AF2DE9F04705460C461646A01CFE
:10080000C4B24FF0000AD0463AE005F1B000C2B2DF
:1008100000217820FFF79CFE2746E01704EB1070BC
:1008200000111030C2B200217820FFF791FEE017CE
:1008300004EB10700011A4EB0010C2B2002178206C
:10084000FFF786FE4FF0000911E00AEB0610A0F555
:1008500000700E490A5C40217820FFF779FE0AF10A
:10086000010000F0FF0A09F1010000F0FF09B9F1F1
:10087000080FEADB681CC5B208F1010000F0FF08B0
:10088000B8F1020FC1DBBDE8F0870000160D0008CB
:100890007047000029B1064AD2690243044BDA616D
:1008A00004E0034AD2698243014BDA6170470000D9
:1008B0000010024029B1064A92690243044B9A6132
:1008C00004E0034A92698243014B9A617047000039
:1008D0000010024010B500F031F84FF4803000F005
:1008E000EFF800F03FF9044634B34FF4E0114FF451
:1008F000803000F01DF9002000F0D6F84FF4806041
:1009000000F004F9002000F001F90220FFF700FDDB
:100910001020FFF7EFFC012000F004F900BF3920A0
:1009200000F09CF80028FAD0022000F00FF900BF78
:1009300000F0B2F80828FBD110BD00000F48006895
:1009400040F001000D490860084640680C49084025
:100950000A494860084600680A4908400749086093
:100960000846006820F4802008600846406820F4AB
:10097000FE0048604FF41F0088607047001002407E
:100980000000FFF8FFFFF6FE30B500210022002432
:1009900000232D4D6D6805F00C0121B1042905D00F
:1009A000082923D105E0294D056022E0274D056087
:1009B0001FE0254D6D6805F47012234D6D6805F438
:1009C0008034022505EB92421CB9214D5543056048
:1009D0000BE01D4D6D6805F400351DB11C4D5543F0
:1009E000056002E0194D5543056002E0174D0560B2
:1009F00000BF00BF144D6D6805F0F0010909154DE9
:100A00006B5C0568DD4045600F4D6D6805F4E06185
:100A1000090A104D6B5C4568DD4085600A4D6D68C4
:100A200005F46051C90A0B4D6B5C4568DD40C5603B
:100A3000054D6D6805F44041890B074D6B5CC56839
:100A4000B5FBF3F5056130BD0010024000127A00DD
:100A500000093D00000000201000002010B50146F4
:100A60000022002300204A11012A02D1094C2368E8
:100A700006E0022A02D1074C236A01E0054C636AB2
:100A800001F01F02012494401C400CB1012000E041
:100A9000002010BD001002400248406800F00C0029
:100AA000704700000010024001460020034A5068D1
:100AB00020F0F00008435060704700000010024032
:100AC0001149096821F480310F4A11601146096803
:100AD00021F480211160B0F5803F03D0B0F5802F64
:100AE0000ED106E00849096841F48031064A1160D8
:100AF00007E00549096841F4A021034A116000E0BC
:100B000000BF00BF704700000010024001460020F7
:100B1000034A506820F4605040EAC10050607047BA
:100B20000010024001490866704700000000424280
:100B300002460020044B586820F47C1042EA01036E
:100B40001843014B586070470010024001460020D6
:100B5000034A506820F003000843506070470000CB
:100B60000010024038B5002000900024002500BF8E
:100B70003120FFF773FF05460098401C0090009855
:100B8000B0F5A06F01D0002DF2D03120FFF766FF45
:100B900008B1012400E00024204638BD704710B59C
:100BA00000F002F810BD00000CB50020019000908C
:100BB0003348006840F480303149086000BF304855
:100BC000006800F4003000900198401C01900098EB
:100BD00018B90198B0F5A06FF1D12948006800F468
:100BE000003010B10120009001E00020009000983A
:100BF000012843D12348006840F0100021490860D3
:100C00000846006820F0030008600846006840F0CD
:100C1000020008601A484068194948600846406860
:100C200048600846406840F4806048600846406874
:100C300020F47C1048600846406840F4E8104860A2
:100C40000846006840F08070086000BF0C480068EB
:100C500000F000700028F9D00948406820F0030037
:100C6000074948600846406840F00200486000BFFD
:100C70000348406800F00C000828F9D10CBD0000C2
:100C800000100240002002407047000010B51348D9
:100C9000006840F0010011490860084640681049AA
:100CA00008400E494860084600680E4908400B4954
:100CB00008600846006820F4802008600846406804
:100CC00020F4FE0048604FF41F008860FFF767FFC4
:100CD0004FF000600449086010BD000000100240A1
:100CE0000000FFF8FFFFF6FE08ED00E000BFFEE7A2
:100CF0006420FFF7DBFAFFF7EDFDFFF7A3FBFFF73B
:100D000045FD07E0432268210620FFF773FDC82058
:100D1000FFF7CCFAF6E7000000000000000000003A
:100D2000000000000000000038FCFC38000000005B
:100D3000000D0D000000000E1E00001E0E00000041
:100D400000000000000020F8F820F8F82000020F52
:100D50000F020F0F0200387C444747CC980003066F
:100D6000041C1C07030030300080C06030000C06FB
:100D70000301000C0C0080D87CE4BCD84000070FB5
:100D80000808070F080000101E0E000000000000F9
:100D90000000000000000000F0F80C04000000005B
:100DA00003070C0800000000040CF8F0000000002D
:100DB000080C0703000080A0E0C0C0E0A080000293
:100DC000030101030200008080E0E0808000000059
:100DD000000303000000000000000000000000000D
:100DE000101E0E0000008080808080808000000047
:100DF00000000000000000000000000000000000F3
:100E0000000C0C00000000000080C06030000C06E8
:100E1000030100000000F8FC04C424FCF800070FE4
:100E20000908080F0700001018FCFC00000000086B
:100E3000080F0F080800080C84C4643C18000E0F4B
:100E40000908080C0C00080C444444FCB800040CCD
:100E50000808080F0700C0E0B098FCFC8000000004
:100E600000080F0F08007C7C4444C4C48400040CB8
:100E70000808080F0700F0F84C4444C08000070F32
:100E80000808080F07000C0C0484C47C3C00000018
:100E90000F0F00000000B8FC444444FCB800070FEA
:100EA0000808080F0700387C444444FCF800000898
:100EB00008080C07030000000030300000000000AC
:100EC00000060600000000000030300000000000B6
:100ED000080E060000000080C06030180800000006
:100EE0000103060C08004040404040404000020220
:100EF0000202020202000008183060C080000008F0
:100F00000C0603010000181C04C4E43C1800000097
:100F1000000D0D000000F0F808C8C8F8F000070F39
:100F2000080B0B0B0100E0F0988C98F0E0000F0F1D
:100F30000000000F0F0004FCFC4444FCB800080F44
:100F40000F08080F0700F0F80C04040C1800030742
:100F50000C08080C060004FCFC040CF8F000080F58
:100F60000F080C07030004FCFC44E40C1C00080FF1
:100F70000F08080C0E0004FCFC44E40C1C00080FD5
:100F80000F0800000000F0F80C84848C9800030720
:100F90000C0808070F00FCFC404040FCFC000F0F51
:100FA0000000000F0F00000004FCFC040000000023
:100FB000080F0F08000000000004FCFC0400070FED
:100FC00008080F07000004FCFCC0F03C0C00080FF0
:100FD0000F00010F0E0004FCFC0400000000080FCD
:100FE0000F08080C0E00FCFC387038FCFC000F0FDA
:100FF0000000000F0F00FCFC3870E0FCFC000F0F3D
:101000000000000F0F00F0F80C040CF8F0000307CC
:101010000C080C07030004FCFC44447C3800080F57
:101020000F0800000000F8FC040404FCF800070F9F
:10103000080E3C3F270004FCFC44C4FC3800080FA9
:101040000F00000F0F00183C6444C49C1800060EEB
:101050000808080F0700001C0CFCFC0C1C0000001A
:10106000080F0F080000FCFC000000FCFC00070F4C
:101070000808080F0700FCFC000000FCFC0001034E
:10108000060C06030100FCFC008000FCFC00030FC2
:101090000E030E0F03000C3CF0C0F03C0C000C0FD4
:1010A0000300030F0C00003C7CC0C07C3C0000002F
:1010B000080F0F0800001C0C84C4643C1C000E0FB9
:1010C0000908080C0E000000FCFC040400000000ED
:1010D0000F0F080800003870E0C08000000000001A
:1010E000000103070E0000000404FCFC00000000E7
:1010F00008080F0F0000080C0603060C080000008B
:10110000000000000000000000000000000020209F
:101110002020202020200000030704000000000001
:1011200000000000000000A0A0A0E0C00000070F29
:101130000808070F080004FCFC2060C08000080FAE
:101140000708080F0700C0E0202020604000070FBC
:101150000808080C040080C06024FCFC0000070F95
:101160000808070F0800C0E0A0A0A0E0C000070F1B
:101170000808080C040040F8FC440C180000080F94
:101180000F0800000000C0E02020C0E02000276F12
:1011900048487F3F000004FCFC4020E0C000080FEE
:1011A0000F00000F0F00000020ECEC00000000001A
:1011B000080F0F0800000000000020ECEC000030D9
:1011C0007040407F3F0004FCFC80C0602000080F9E
:1011D0000F01030E0C00000004FCFC0000000000E6
:1011E000080F0F080000E0E060C060E0C0000F0FD3
:1011F000000F000F0F0020E0C02020E0C000000F13
:101200000F00000F0F00C0E0202020E0C000070FFB
:101210000808080F070020E0C02020E0C000407F41
:101220007F48080F0700C0E02020C0E02000070F23
:1012300008487F7F400020E0C0602060C000080FA9
:101240000F080000000040E0A02020604000040CD7
:1012500009090B0E04002020F8FC202000000000EB
:10126000070F080C0400E0E00000E0E00000070FBA
:101270000808070F080000E0E00000E0E0000003BD
:10128000070C0C070300E0E0000000E0E000070F9F
:101290000C070C0F07002060C080C0602000080C05
:1012A0000703070C0800E0E0000000E0E000474F03
:1012B0004848683F1F00606020A0E06020000C0EDE
:1012C0000B09080C0C00004040F8BC0404000000AE
:1012D00000070F080800000000BCBC000000000070
:1012E000000F0F000000000404BCF840400000089C
:1012F000080F07000000080C040C080C0400000094
:1013000000000000000080C0603060C0800007075F
:1013100004040407070000000000000000000000B3
:10132000000000000000000038FCFC380000000055
:10133000000D0D000000000E1E00001E0E0000003B
:1013400000000000000020F8F820F8F82000020F4C
:101350000F020F0F0200387C444747CC9800030669
:10136000041C1C07030030300080C06030000C06F5
:101370000301000C0C0080D87CE4BCD84000070FAF
:101380000808070F080000101E0E000000000000F3
:101390000000000000000000F0F80C040000000055
:1013A00003070C0800000000040CF8F00000000027
:1013B000080C0703000080A0E0C0C0E0A08000028D
:1013C000030101030200008080E0E0808000000053
:1013D0000003030000000000000000000000000007
:1013E000101E0E0000008080808080808000000041
:1013F00000000000000000000000000000000000ED
:10140000000C0C00000000000080C06030000C06E2
:10141000030100000000F8FC04C424FCF800070FDE
:101420000908080F0700001018FCFC000000000865
:10143000080F0F080800080C84C4643C18000E0F45
:101440000908080C0C00080C444444FCB800040CC7
:101450000808080F0700C0E0B098FCFC80000000FE
:1014600000080F0F08007C7C4444C4C48400040CB2
:101470000808080F0700F0F84C4444C08000070F2C
:101480000808080F07000C0C0484C47C3C00000012
:101490000F0F00000000B8FC444444FCB800070FE4
:1014A0000808080F0700387C444444FCF800000892
:1014B00008080C07030000000030300000000000A6
:1014C00000060600000000000030300000000000B0
:1014D000080E060000000080C06030180800000000
:1014E0000103060C0800404040404040400002021A
:1014F0000202020202000008183060C080000008EA
:101500000C0603010000181C04C4E43C1800000091
:10151000000D0D000000F0F808C8C8F8F000070F33
:10152000080B0B0B0100E0F0988C98F0E0000F0F17
:101530000000000F0F0004FCFC4444FCB800080F3E
:101540000F08080F0700F0F80C04040C180003073C
:101550000C08080C060004FCFC040CF8F000080F52
:101560000F080C07030004FCFC44E40C1C00080FEB
:101570000F08080C0E0004FCFC44E40C1C00080FCF
:101580000F0800000000F0F80C84848C980003071A
:101590000C0808070F00FCFC404040FCFC000F0F4B
:1015A0000000000F0F00000004FCFC04000000001D
:1015B000080F0F08000000000004FCFC0400070FE7
:1015C00008080F07000004FCFCC0F03C0C00080FEA
:1015D0000F00010F0E0004FCFC0400000000080FC7
:1015E0000F08080C0E00FCFC387038FCFC000F0FD4
:1015F0000000000F0F00FCFC3870E0FCFC000F0F37
:101600000000000F0F00F0F80C040CF8F0000307C6
:101610000C080C07030004FCFC44447C3800080F51
:101620000F0800000000F8FC040404FCF800070F99
:10163000080E3C3F270004FCFC44C4FC3800080FA3
:101640000F00000F0F00183C6444C49C1800060EE5
:101650000808080F0700001C0CFCFC0C1C00000014
:10166000080F0F080000FCFC000000FCFC00070F46
:101670000808080F0700FCFC000000FCFC00010348
:10168000060C06030100FCFC008000FCFC00030FBC
:101690000E030E0F03000C3CF0C0F03C0C000C0FCE
:1016A0000300030F0C00003C7CC0C07C3C00000029
:1016B000080F0F0800001C0C84C4643C1C000E0FB3
:1016C0000908080C0E000000FCFC040400000000E7
:1016D0000F0F080800003870E0C080000000000014
:1016E000000103070E0000000404FCFC00000000E1
:1016F00008080F0F0000080C0603060C0800000085
:101700000000000000000000000000000000202099
:1017100020202020202000000307040000000000FB
:1017200000000000000000A0A0A0E0C00000070F23
:101730000808070F080004FCFC2060C08000080FA8
:101740000708080F0700C0E0202020604000070FB6
:101750000808080C040080C06024FCFC0000070F8F
:101760000808070F0800C0E0A0A0A0E0C000070F15
:101770000808080C040040F8FC440C180000080F8E
:101780000F0800000000C0E02020C0E02000276F0C
:1017900048487F3F000004FCFC4020E0C000080FE8
:1017A0000F00000F0F00000020ECEC000000000014
:1017B000080F0F0800000000000020ECEC000030D3
:1017C0007040407F3F0004FCFC80C0602000080F98
:1017D0000F01030E0C00000004FCFC0000000000E0
:1017E000080F0F080000E0E060C060E0C0000F0FCD
:1017F000000F000F0F0020E0C02020E0C000000F0D
:101800000F00000F0F00C0E0202020E0C000070FF5
:101810000808080F070020E0C02020E0C000407F3B
:101820007F48080F0700C0E02020C0E02000070F1D
:1018300008487F7F400020E0C0602060C000080FA3
:101840000F080000000040E0A02020604000040CD1
:1018500009090B0E04002020F8FC202000000000E5
:10186000070F080C0400E0E00000E0E00000070FB4
:101870000808070F080000E0E00000E0E0000003B7
:10188000070C0C070300E0E0000000E0E000070F99
:101890000C070C0F07002060C080C0602000080CFF
:1018A0000703070C0800E0E0000000E0E000474FFD
:1018B0004848683F1F00606020A0E06020000C0ED8
:1018C0000B09080C0C00004040F8BC0404000000A8
:1018D00000070F080800000000BCBC00000000006A
:1018E000000F0F000000000404BCF8404000000896
:1018F000080F07000000080C040C080C040000008E
:1019000000000000000080C0603060C08000070759
:101910000404040707000000381900080000002034
:1019200014000000280100084C19000814000020D1
:1019300064060000440100080000000001020304E6
:0C1940000102030406070809020406085F
:04000005080000ED02
:00000001FF
