:020000040800F2
:1000000068070020350200088D210008611D0008E6
:1000100089210008FD1B00089B300008000000003B
:10002000000000000000000000000000A12A0008FD
:10003000011C0008000000008D2300088D2B000823
:100040004F0200084F0200084F0200084F0200084C
:100050004F0200084F0200084F0200084F0200083C
:100060004F0200084F0200084F0200084F0200082C
:100070004F0200084F0200084F0200084F0200081C
:100080004F0200084F0200084F0200084F0200080C
:100090004F0200084F0200084F0200084F020008FC
:1000A0004F0200084F0200084F0200084F020008EC
:1000B0004F0200084F0200084F0200084F020008DC
:1000C0004F0200084F0200084F0200084F020008CC
:1000D0004F020008152C00084F020008A52D00084B
:1000E0004F0200084F0200084F02000800F002F81B
:1000F00000F090F80AA090E8000C82448344AAF132
:100100000107DA4501D100F085F8AFF2090EBAE82F
:100110000F0013F0010F18BFFB1A43F0010318473B
:10012000403B0000603B0000103A24BF78C878C113
:10013000FAD8520724BF30C830C144BF04680C60ED
:10014000704700000023002400250026103A28BF35
:1001500078C1FBD8520728BF30C148BF0B60704739
:100160006E2900F09781702900F0E182662903F082
:10017000F381652903F0F081672903F0ED8161299E
:1001800003F0EC8103681B0A28BF41F08001692954
:1001900000F04481642900F04181752900F03E811E
:1001A0006F2900F06E82782900F0AD82E92900F015
:1001B0000982E42900F00682F52900F00382EF2984
:1001C00000F06B82F82900F0AC820368DB0928BFDD
:1001D00041F08001632900F0AD87732900F0B287F8
:1001E000E32900F0BD87F32900F0C28700207047A3
:1001F0001FB501F00FF804000020002103F096F96C
:10020000401C60600020002103F07AF9E0601FBD0F
:1002100010B510BD00F0D0FF1146FFF7E9FF02F066
:100220007FFF01F0A9F803B4FFF7F2FF03BC02F06F
:1002300051FF00000948804709480047FEE7FEE7F4
:10024000FEE7FEE7FEE7FEE7FEE7FEE7FEE7FEE786
:1002500004480549054A064B70470000912B0008E9
:10026000ED000008680100206807002068030020F6
:1002700068030020704700007CB51D4616460C0040
:10028000009001D02044401E074B7B442A4669461B
:100290000190304600F017F905461CB10020694670
:1002A00000F024F928467CBD6902000010B5431C0B
:1002B00002E010F8011B71B18107FAD14FF0013251
:1002C00002C88C1A8C4314EAC211F9D0C01A0A066B
:1002D00003D0C01E10BDC01A10BD0A0401D0801E7C
:1002E00010BD0902FCD0401E10BD10B5203AC0F070
:1002F0000B80B1E81850203AA0E81850B1E8185027
:10030000A0E81850BFF4F5AF5FEA027C24BFB1E863
:100310001850A0E8185044BF18C918C0BDE81040D4
:100320005FEA827C24BF51F8043B40F8043B08BFDD
:100330007047D20728BF31F8023B48BF11F8012BA4
:1003400028BF20F8023B48BF00F8012B70477047D8
:1003500070477047704770B5044685690068C106EC
:1003600001D5302600E02026C00707D070BDD4E9B3
:10037000012130469047206A401C20626D1EF6D550
:1003800070BD70B5044685690078C00707D170BD9F
:10039000D4E9012120209047206A401C20626D1E74
:1003A000F6D570BD09684A0501D540B27047C90548
:1003B000FCD500B2704709684A0501D5C0B2704744
:1003C000C905FCD580B2704770B50C460546012AB8
:1003D00005D02878800600D5EA69002302E00123D1
:1003E00005E05B1C934202D2E05C0028F9D1A869C9
:1003F000E618C01AA861286A184428622846FFF740
:10040000AAFF04E0D5E9012114F8010B9047B4429A
:10041000F8D32846FFF7B5FF70BD00002DE9F04185
:100420000646002410687529314616A510D0FFF73E
:10043000B9FF002802DA404213A507E031688A07B5
:1004400001D512A502E0490704D511A5012401E058
:10045000FFF7B1FF00210A2206F1240709E0B0FBF3
:10046000F2FCB0FBF2F302FB1C003030785418466B
:10047000491C0028F3D123462A463046BDE8F04106
:1004800000F069BA000000002D0000002B00000001
:100490002000000011680268006A530501D5087049
:1004A0000AE0D30501D5088006E0130603D5C2177C
:1004B000C1E9000200E008600120704701694A1CA0
:1004C00002610878704700B58FB0CDE90131002195
:1004D000059105497944CDE903101146684600F0BD
:1004E00031F90FB000BD0000E5FFFFFF0A6802F818
:1004F000010B0A607047D1E900239A4202D2531CD3
:100500000B601070704700002DE9FF5F15468A46AA
:100510000446DFF8AC80F8440027D8E900103E46D6
:10052000CDE9001010E03AF816106A4602A800F073
:1005300023FE411C07D02178890603D5E2693918CA
:1005400091420DD80744761C2078800602D5E069D8
:10055000B84205DDAE42E6DB3AF816000028E2D1EB
:10056000A069C01BA0612046FFF7F5FED8E9001086
:10057000CDE90010002017E03AF818106A4602A8EA
:1005800000F0FAFDB0F1FF3F81460BD000250DF1E0
:10059000080B05E0D4E901211BF8050090476D1C0C
:1005A0004D45F7D308F10100B0428046E4DB206AF4
:1005B000384420622046FFF7E4FEBDE8FF9F0000BC
:1005C0004A3600002DE9F0418046D21D22F0070294
:1005D0000025D2E90002F52915A614D0011E72F1FA
:1005E000000106DA0023D0EB030063EB020211A640
:1005F00008E0D8F800108B0701D50FA602E04907E4
:1006000001D50EA601251146002408F1240704E0B7
:1006100000F05CF930323A55641C50EA0102F7D11F
:100620002B46324621464046BDE8F04100F093B9E2
:10063000000000002D0000002B0000002000000042
:1006400030B4002100F1240408E002F00705D208CC
:10065000303542EA4372DB086554491C52EA03050F
:10066000F3D10468002310A2250707D5A40600D4FF
:1006700021B1C46901230DA2641EC46130BC00F025
:100680006AB910B5044621461068FFF794FE024689
:100690002046BDE810400023D2E7D21D22F007011A
:1006A000D1E90023CCE7000000000000300000008A
:1006B000F0B40D460188090502D5214C7C4402E0C6
:1006C0001F4C7C440E34002100F1240608E002F0A7
:1006D0000F071209E75D42EA03721B097754491CB0
:1006E00052EA0307F3D102780023120704D5702DD4
:1006F00006D009B1022311342246F0BC00F02BB918
:1007000001231034F8E770B504460D462146106801
:10071000FFF751FE024629462046BDE870400023FF
:10072000C6E7D21D22F00703D3E90023C0E7036820
:10073000126843F0200303600823C3610023B7E776
:10074000AC3400002DE9F05F894604464FF0000A02
:10075000DFF874B1FB44C0F820A02046E168884768
:10076000002874D0252806D0D4E901219047206ABA
:10077000401C2062F1E700265F462046E16888477A
:100780002028054607DB312D05D2781910F8200CFA
:1007900008B10643F1E7B00701D526F00406C4F816
:1007A0001CA00027C4F818A02A2D09D0284602F062
:1007B0008AFC38B304EB8708303DC8F8185019E0BC
:1007C00059F8041B204604EB87029161E1688847D1
:1007D000012F054618D1E069002820DA26F020060E
:1007E0001DE0D8F8180000EB800005EB4000303821
:1007F000C8F818002046E1688847054602F063FC07
:100800000028EED1012F0AD02E2D08D12046E16814
:1008100088477F1C0546022F46F02006C4DBA069EE
:10082000002803DA404246F00106A061F00701D03B
:1008300026F010066C2D0BD0682D09D04C2D39D028
:100840006A2D35D0742D35D07A2D33D016E038E0AE
:10085000E1682F4620468847B842054609D16C2FEB
:1008600026D04FF48060E16806432046884705465D
:1008700004E06C2F1AD04FF4807006430DB3A5F13D
:100880004100192802D8203546F400664A46294618
:10089000204626604E46FFF763FC80B101280BD04E
:1008A000F61D26F0070000F1080956E74020E4E7AE
:1008B0008020D8E70020D6E706F104094DE7284656
:1008C00052E7206ABDE8F09F3C34000030B5B0F13B
:1008D0000A024FEA900E71F100034EEA817EB0EBFE
:1008E0000E0061EB91014FEA101E4EEA017E10EB03
:1008F0000E0041EB11114FEA102E4EEA016E10EB83
:100900000E0041EB11214FEA104E4EEA014E10EB62
:100910000E0041EB1141401841F100014FEAD000B7
:1009200040EA41704FEAD10110EB80054FEA8104A3
:1009300044EA907444EB01046D1944EB0404521B27
:10094000A3414FF0000348BF0A3200D530BD401C20
:1009500041F1000130BD2DE9F0470D469946924620
:10096000044600F124080168880604D5E06921F0F6
:100970001001216000E00120A84201DD471B00E0DA
:100980000027A1697A1902EB0900081AA0612078F2
:10099000C00602D42046FFF7DEFC002608E0D4E9BA
:1009A00001211AF806009047206A401C761C20623C
:1009B0004E45F4DB2078C0060AD52046FFF7CBFC75
:1009C00006E0D4E9012130209047206A401C2062D3
:1009D000381EA7F10107F4DC07E0D4E9012118F87B
:1009E00005009047206A401C2062281EA5F10105E1
:1009F000F3DC2046FFF7C5FC2078000602D5022074
:100A0000BDE8F0870120FBE770472DE9FF4F0C465A
:100A10001E464FF0FF378BB0D2E90001DDF8608051
:100A20000A908A46C1F30A5505B93D460021084699
:100A30004FF00000BAF1000F00F4400005DA00EBBF
:100A400080004FF4400101EA50004FEA9059B9F19B
:100A5000010F00DDB9460A9850EA4A000ED044F66C
:100A60001050A5F2FF3545432F14B8F1000F1ED0EA
:100A70007542291E1EDDC9F100021CE0B8F1010F0C
:100A80004FF0000001D0302103E0F24305E0215493
:100A9000401CB042FBDB30460022002121540B9960
:100AA000C1F80880C1E900200FB0BDE8F08FBD1B80
:100AB0006D1CDEE74A4600DA694206A800F0EEFB4C
:100AC00006AB93E8070003AB83E8070050460A999A
:100AD00000F0A0FC8DE80700A0F500501F38009042
:100AE0000398002D09DD42F21F014A46084403A97C
:100AF0000390684600F0FFFE08E0A0F500504A466B
:100B00001F3803A90390684600F009FF8DE807002D
:100B10000004000C03D04FF0FF30410800E0104605
:100B2000B8F1000F03D00022009215461EE0751E9A
:100B300005D4FFF7CBFE303262556D1EF9D5B346B2
:100B40000122084302D000227F1C04E020783028D4
:100B500001D100227F1E002A099786D01DE0112DA9
:100B600007DAFFF7B3FE303262556D1C50EA01021E
:100B7000F5D1084302D00098C8B10EE00021681EEC
:100B800005E0235C625C63542254401E491C814290
:100B9000F7DBAB46A81B401E0990002004F80B00B1
:100BA0000B98099AC0F80880C0E9002B7CE7112651
:100BB0004FF0000859E72DE9F04F88460446D21D52
:100BC00022F0070191B0D1E90001CDE90A0102F05C
:100BD00066FA02460B98C00F01D02D2007E020686E
:100BE000810701D52B2002E0202101EAC000032A61
:100BF000099001D0072A05DB03464146204600F054
:100C00000DFB0BE12078800601D5E06900E00620AD
:100C1000B8F1650F814606D0B8F1660F18D0B8F16B
:100C2000670F70D131E00020B9F1110F009001DBA6
:100C3000112301E009F101030AAA01A90CA8FFF799
:100C4000E4FEDDE90C70002609F10105834647E06A
:100C500001204B4600904FF000470AAA01A90CA8BA
:100C6000FFF7D3FEDDE90DB00C995D46002610B903
:100C700009F101000D18B9EB050003D4C0F1FF36EE
:100C800009F10105A5EB09002BE0B9F1010F01DA2B
:100C90004FF001090020B9F1110F0090484601DD25
:100CA000112300E003460AAA01A90CA8FFF7ADFE34
:100CB000DDE90C704D4600268346207800070AD4F3
:100CC000AB4500DA5D4601A8012D04DD411911F89C
:100CD000011C302907D04F4502DA17F1040F04DA5E
:100CE000012082460FE06D1EEEE7002F02DCED1BB7
:100CF0003E4403E0781CA84200DD7D1CB81B00F1D7
:100D0000010A4FF000472078000703D4AA4501DB11
:100D10004FF0FF3A0021B7F1004F0DF143088DF875
:100D2000431024D002202B23002F01DA7F422D23F1
:100D30000A21021EA0F1010000DC5FB197FBF1FC6B
:100D400097FBF1F201FB1C7C17460CF1300C08F804
:100D500001CDEEE7A8F1010003702188090501D556
:100D6000452100E06521A0F1010800F8011C099867
:100D70000FA9A1EB0807FF1D00B10120411901EBEC
:100D8000EA70A1693844081A401EA0612078C006A4
:100D900002D42046FFF7DFFA099828B1D4E90121EF
:100DA0009047206A401C20622078C00622D5204649
:100DB000FFF7D1FA1EE0002E04DBB34502DD01A8E7
:100DC000805D00E03020D4E901219047206A401C7A
:100DD0002062761CAAF101005FEA000A0AD100F045
:100DE00019FAC0680168405CD4E901219047206A83
:100DF000401C2062281EA5F10105DCDC07E0D4E9D7
:100E0000012118F8010B9047206A401C2062381E0F
:100E1000A7F10107F3DC2046FFF7B3FA032011B076
:100E200043E600002DE9F04F04460D46D21D22F0A6
:100E3000070089B0D0E900974846394602F02FF9FB
:100E40000246F80F01D02D2307E02068810701D565
:100E50002B2302E0202101EAC0038DF820300BB1E2
:100E6000012000E00020032A824601D0072A04DB8B
:100E70002946204600F0D2F93FE12078800601D4CF
:100E80000D2500E0E569C7F30A560D2D49DA00216A
:100E90004FEA175B08464FF00000002F00F44000B7
:100EA00007DA00EB80004FF4400100EBD07001EA5C
:100EB00060008115012901DD4FF0FF3100224FEA6A
:100EC000850CBCF1180F06D31346ACF118004FF097
:100ED0008052C24003E04FF4801323FA0CF30CF16C
:100EE0000C0CBCF1200F04D3ACF1200C09FA0CF06F
:100EF00001E007FA0CF000294FF0004801DD18B9B5
:100F00000FE00ED140450CD319EB02095F4121B926
:100F1000404502D19F4329EA0209BBEB175F00D08D
:100F2000761C2088000502D57B48784402E07A4888
:100F30007844193808AA302302F80A30037C0AF1F1
:100F40000101002E0AF1020A53546A4602DC4FF0F6
:100F5000300101E04FF031014FF001088DF8001031
:100F600002D0A6F2FF3603E059EA470100D06B4EEB
:100F7000002D02DC2178090704D54FF002082E214C
:100F80008DF80110C44600210BE0C7F303433F0175
:100F9000C35C491C6D1E02F80830052908F10108E0
:100FA00001DA002DF1DC00210CE000EB1973491C83
:100FB0001B786D1E082902F808304FEA091908F15C
:100FC000010801DA002DF0DC21688B0602D516E05D
:100FD000A8F10108E04505DD02EB080313F8013C28
:100FE000302BF5D0B8F1000F09DD02EB080313F840
:100FF000013C2E2B03D1090701D4A8F10108002DD3
:1010000005DD3E2102F808106D1E08F10108407C44
:10101000002E02F8080008F1010804DA2D207642BB
:1010200002F8080002E02B2002F808000A214FF421
:101030007A70864208F101080BDB96FBF0F330333F
:1010400002F8083096FBF0F308F1010800FB136684
:1010500001E0642E0CDB642096FBF0F3303302F8E1
:10106000083096FBF0F308F1010800FB136601E07D
:101070000A2E06DB96FBF1F0303002F8080008F18A
:10108000010896FBF1F001FB1060303002F8080017
:10109000A16908F1010808EB050202EB0A00081A31
:1010A000A0612078C00602D42046FFF754F9216AD7
:1010B00008AE01EB0A00206204E0D4E9012116F831
:1010C000010B9047BAF1010AF7D22078C00602D589
:1010D0002046FFF740F96E4609E016F8010B3E285E
:1010E0000FD0D4E901219047206A401C2062B8F15A
:1010F0000108F2D22046FFF744F909B00320BDE809
:10110000F08F206A2844206203E0D4E901213020D6
:1011100090476D1EEBD3F8E78A2C000002FCFFFF1E
:1011200010B5436913B1AFF3008001E0FFF74CF94C
:10113000012010BD127800F124010A7000224A70CB
:101140000122EDE711684FF0FF32E9E710B543697E
:1011500013B1AFF3008001E0FFF7D6F9012010BD15
:10116000128800F1240182840022C2840122EDE76A
:1011700011684FF0FF32E9E770B516460C46054698
:1011800000F040F8036893F80101012806D0FF2C15
:101190000FD8185D68B101202C7070BDD3F807011D
:1011A0003246214603F2071303442846BDE8704047
:1011B00018474FF0FF3070BD754600F0E7F8AE46B7
:1011C00005006946534620F00700854618B020B553
:1011D000FFF73EF8BDE820404FF000064FF0000753
:1011E0004FF000084FF0000B21F00701AC46ACE8CF
:1011F000C009ACE8C009ACE8C009ACE8C0098D463C
:101200007047000010B500F005F8001D10BD00BFCC
:101210001D23000000487047240100202DE9F04103
:101220001F46044603260168072A01F4006004DB18
:1012300008B116A505E016A503E008B115A500E064
:1012400015A521F010002060A069C01EA0610FB19B
:10125000401EA0612046FFF77EF84FB1D4E901217E
:1012600038469047206A401C2062C01C206206E07D
:10127000206AFAE7D4E9012115F8010B9047761EA0
:10128000F8D22046FFF77DF8BDE8F0814E414E00D0
:101290006E616E00494E4600696E66002DE9F047AA
:1012A000814616468AB0334878440DC88DE80D0053
:1012B00030487844801C03AC0DC884E80D0041F62A
:1012C0009B300844372190FBF1F290FBF1F5A5F13A
:1012D000800501FB12041B3C02D56442012000E0A2
:1012E0000020DFF890A080460027FA44AAF1BE0A49
:1012F0000DE0E00709D03246684607EB47010AEBEC
:10130000810100F00CFB8DE8070064107F1C002CAD
:10131000EFD1184F7F44AC3F18E0E80714D007EB3B
:1013200004100DF1180A90E80E008AE80E00C0685B
:10133000F04201D198190890324606A903A800F09E
:10134000EEFA03AB83E807006D10641C002DE4D1B6
:1013500032466946B8F1000F03A802D000F0CBFA7C
:1013600001E000F0DCFAC9E90001C9F808200AB080
:10137000BDE8F0879C29000010B50446AFF300805B
:101380002046BDE81040FEF74EBF00000048704701
:10139000040100204FF0013C50F8042B51F8043BAD
:1013A0009A4221D1A2EB0C03934313EACC1317D139
:1013B00050F8042B51F8043B9A4215D1A2EB0C03D0
:1013C000934313EACC130BD150F8042B51F8043B90
:1013D0009A4209D1A2EB0C03934313EACC13DBD05E
:1013E0004FF00000704700BFD01A01BAB1FA81F186
:1013F00001F0180122FA01F0CB40C1F12001DBB26B
:10140000C0B2C01A2CFA01F3D11A914311EAC311E8
:10141000E6D170475FEA400C08BF91F0000F4FEA39
:101420008C234FEAC12243EA51514FEA1C5018BFA6
:1014300000F5F0404FEA300018BF41F000415FEA8C
:101440006C5C00F02980BCF1FF3F08BF40F0804099
:101450007047130C06BF12044FF0100C4FF0000C35
:10146000130E04BF12020CF1080C130F04BF12017B
:101470000CF1040C930F04BF92000CF1020CD30F7B
:1014800004BF52000CF1010C11464FF00002A0F114
:101490001F00A0EB0C00704711F0004F08BF704711
:1014A00031F000413FF4D5AF0B0C06BF09044FF0FB
:1014B000100C4FF0000C0B0E04BF09020CF1080CCD
:1014C0000B0F04BF09010CF1040C8B0F04BF890042
:1014D0000CF1020CCB0F04BF49000CF1010CCCF154
:1014E0002003A0EB0C0022FA03F302FA0CF241EA0B
:1014F000030100F10100704720F07F4C80EA0300F7
:1015000023F07F47ACEB070303F57C5300F000406A
:1015100003F1FF032DE980494FEA154B09B44FEA67
:10152000144325EA0B4E24EA03480FF2042606EB87
:10153000132749083E785FEA320203FB0667C7F5C6
:10154000000707FB06F64FEA54374FEAD64606F186
:10155000020607FB066CCCF1005C4FEA1C472CEA44
:10156000074C07FB06F40CFB06F504EB15464FEAA7
:10157000961634BF00204FF000404FEAD13706FBEB
:1015800007FC4FEA1C4C0CFB0BF7D21B03FB0CF7C0
:1015900061EB07010CFB0EF7B0EB074072EB174253
:1015A0000CFB08F734BFA2EB0742B2EB074261EB3A
:1015B00017414FEA0C444FEA910706FB07FC4FEA3C
:1015C0001C4C0CFB0BF7B0EBC74072EB573203FB24
:1015D0000CF734BFA2EBC742B2EBC74261EB573105
:1015E0000CFB0EF7B0EBC70072EB57720CFB08F761
:1015F00034BFA2EBC702B2EBC70261EB5771039F86
:101600004FEA816141EA921104EBCC044FEAD137F1
:101610004FEA826206FB07FC42EA90124FEA8060C2
:101620004FEA1C4C0CFB0BF7D21B03FB0CF761EBD6
:1016300007010CFB0EF7B0EB074072EB17420CFBF7
:1016400008F734BFA2EB0742B2EB074261EB174148
:101650004FEA8C554FEA910704EB9C2406FB07FCEC
:101660004FEA1C4C0CFB0BF7B0EBC74072EB573248
:1016700003FB0CF734BFA2EBC742B2EBC74261EBEE
:1016800057310CFB0EF7B0EBC70072EB57720CFB37
:1016900008F734BFA2EBC702B2EBC70261EB577188
:1016A00015EB4C254FEA816141EA92114FEA8262C3
:1016B0004FEAD13742EA901206FB07FC44F10004DE
:1016C0004FEA80604FEA1C4C0CFB0BF7D21B03FB6C
:1016D0000CF761EB07010CFB0EF7B0EB074072EB68
:1016E00017420CFB08F734BFA2EB0742B2EB0742EC
:1016F00061EB174115EB1C154FEA813141EA92412C
:101700004FEA823242EA90424FEA80304FEA0C764A
:1017100044F1000448EA03434EEA0B484FF0000E40
:10172000B2EB080C71EB030724BF624639464EEB5F
:101730000E0E4FF0000B0018524149414BEB0B0BC2
:10174000B2EB080C71EB03077BF1000B24BF624680
:1017500039464EEB0E0E4FF0000B00185241494136
:101760004BEB0B0BB2EB080C71EB03077BF1000B9F
:1017700024BF624639464EEB0E0E51EA020718BFEF
:1017800046F0010616EB0E7655F1000254F1000109
:1017900003D5BDE88901BDE80088BDE88901BDE841
:1017A0000048B619524141EB0101A3F10103704712
:1017B00080807F7E7D7C7B7A79787776767574738E
:1017C000727171706F6E6E6D6C6C6B6A6A6968684D
:1017D000676666656464636362616160605F5F5EE3
:1017E0005E5D5D5C5C5B5B5A5A5959585857575659
:1017F00056555555545453535252525151505050BE
:101800004F4F4F4E4E4D4D4D4C4C4C4B4B4B4A4A0F
:101810004A49494948484847474747464646454553
:10182000454444444443434343424242424141418C
:10183000002B26D4770021D01CB54FEA370703B41C
:101840004FF010004FF010014FF000000FBCBDE84A
:1018500010400BF1010BBBF1010F08BF5FEA170746
:1018600022BF12F1010211F101014FF0004143F1D9
:10187000000300F0004043EA00007047F9D3570826
:10188000DAE746EA064613F1400F4FEA16461FDD37
:1018900013F1200FDFBF16430A46002120335B42BD
:1018A000C8D0C3F1200746EA064602FA07F74FEA16
:1018B000164646EA0706C3F1200722FA03F201FAA8
:1018C00007F721FA03F14FF0000342EA0702B1E7FC
:1018D00046EA020646EA06464FEA164646EA010688
:1018E000BCBF46EA0646360C4FF000034FF000023C
:1018F0004FF000019EE72DE9C048934630B491E8CF
:10190000380007C831EA400C48BF34EA430C03D51D
:10191000FFF7F2FDFFF78CFFF0BCBDE800882DE972
:10192000C048934630B491E8380007C810F0804FA3
:1019300008BF13F0804F03D100F005F8FFF778FFE0
:10194000F0BCBDE8008820F07F4780EA030023F068
:101950007F4C07EB0C03A3F57C5300F00040A3F190
:10196000FE0392F0000F00F0B38095F0000F00F03E
:1019700077802DE901494FEA11404FEA144621EAE8
:10198000004800FB06FC24EA064708FB06F607FBB6
:1019900008F800FB07F718EB06484CEB164C4FEA2B
:1019A000124B18EB07484FEA15464CEB174022EA5A
:1019B0000B4E0BFB06FC25EA06470EFB06F607FB63
:1019C0000EFE0BFB07F71EEB064E4CEB164C4FF0D2
:1019D00000061EEB074E4CEB174B18EB0B0840F1C3
:1019E000000018EB0E0B58EB000840F100008F1AB6
:1019F0004FF000013CBFC943661B14BFB5EB040C9C
:101A000000213CBFC943F61B4FEA17444EEA8E0E35
:101A100027EA04454FEA1C4704FB07622CEA074CFF
:101A200005FB07F70CFB05F604FB0CFC16EB074661
:101A300042EB174216EB0C4642EB1C421BEB060630
:101A400058EB0202414146EA9E0601D5BDE80189F4
:101A5000B619524141EB0101A3F10103BDE801892F
:101A60004FEA14454FEA114724EA054621EA074C9C
:101A700005FB07F406FB07F70CFB06F105FB0CFC66
:101A800011EB074144EB17444FEA124711EB0C41AD
:101A900044EB1C4422EA074C05FB07F206FB07F760
:101AA0000CFB06F605FB0CFC16EB074642EB174257
:101AB00016EB0C4642EB1C456A1854F1000148BF76
:101AC0007047B619524141EB0101A3F10103704780
:101AD00095F0000F37D04FEA11424FEA144721EA40
:101AE000024624EA074C02FB07F106FB07F70CFB52
:101AF00006F402FB0CFC14EB074441EB17414FEAE0
:101B0000154714EB0C4441EB1C4125EA074C02FB42
:101B100007F506FB07F70CFB06F602FB0CFC16EBC1
:101B2000074645EB174516EB0C4645EB1C421219D0
:101B300051F1000148BF7047B619524141EB010114
:101B4000A3F1010370474FEA14454FEA114724EA15
:101B5000054621EA074C05FB07F106FB07F70CFBDE
:101B600006F24FF0000605FB0CFC12EB074241EBBE
:101B7000174112EB0C4251EB1C4148BF70479218C1
:101B800041EB0101A3F10103704710B5012000F002
:101B90001FFC002000F01CFC10BD000001460020CE
:101BA000044A10884FF67F4210400843014A1080D3
:101BB000704700002C6C004008B5014600200090E2
:101BC000034800900098084400900098008808BDE1
:101BD000006C0040014908607047000000860D421B
:101BE00008B500220092044A0092009A0244009232
:101BF000009A116008BD0000006C004000BFFEE7C5
:101C0000704700000549096821F01001034A11607E
:101C1000114609680143116070470000002002402E
:101C200001460020034A106800F0380008431060A5
:101C300070470000002002402DE9F04102460025D7
:101C40000026002000230024002791F803C00CF098
:101C50000F0591F803C00CF0100CBCF1000F03D07D
:101C600091F802C04CEA050591F800C0BCF1000FE4
:101C700031D0146800202BE04FF0010C0CFA00F377
:101C8000B1F800C00CEA03069E4220D183004FF059
:101C90000F0C0CFA03F7BC4305FA03FC4CEA0404EE
:101CA00091F803C0BCF1280F06D14FF0010C0CFADB
:101CB00000FCC2F814C00AE091F803C0BCF1480F60
:101CC00005D14FF0010C0CFA00FCC2F810C0401C0A
:101CD0000828D1D31460B1F800C0BCF1FF0F34DD87
:101CE000546800202EE000F1080C4FF0010808FABB
:101CF0000CF3B1F800C00CEA03069E4221D1830028
:101D00004FF00F0C0CFA03F7BC4305FA03FC4CEA46
:101D1000040491F803C0BCF1280F05D100F1080CB0
:101D200008FA0CF8C2F8148091F803C0BCF1480F0F
:101D300007D100F1080C4FF0010808FA0CF8C2F8BE
:101D40001080401C0828CED35460BDE8F0810246C4
:101D5000002093680B400BB1012000E00020704789
:101D600000BFFEE700B585B00121082000F020FB90
:101D70000121480500F00CFBC020ADF810001C202C
:101D80008DF8130003208DF8120004A90F48FFF707
:101D900053FF0020ADF804004BF6FF70ADF80600CD
:101DA000C020ADF808004FF48060ADF80A000001D3
:101DB000ADF80C00064800906946064800F0CCF8E3
:101DC0000121044800F0A3F805B000BD000C01405B
:101DD000400D0300005400402DE9F04105460F4638
:101DE00014461E4601211D4800F09DF800BF1C4905
:101DF0001A4800F077F80028F9D000222946174841
:101E000000F020F900BF1749144800F06BF80028D3
:101E1000F9D03946114800F01EF900BF1149891C5C
:101E20000E4800F05FF80028F8D00CE014F8011B11
:101E30000A4800F010F900BF0A49891C074800F061
:101E400051F80028F8D0301EA6F101018EB2EDD174
:101E50000121024800F073F8BDE8F0810054004011
:101E6000010003008200070070B504460E461546C7
:101E70000121194800F057F800BF1849164800F032
:101E800031F80028F9D000222146134800F0DAF892
:101E900000BF1349104800F025F80028F9D031465A
:101EA0000D4800F0D8F800BF0D49891C0A4800F021
:101EB00019F80028F8D02946074800F0CCF800BFF0
:101EC0000749891C044800F00DF80028F8D00121CA
:101ED000014800F034F870BD0054004001000300D8
:101EE0008200070070B50246002400250023002070
:101EF000958A138B1B0445EA030626F07F4404EA07
:101F000001068E4201D1012000E0002070BD21B108
:101F1000028842F00102028004E002884FF6FE735C
:101F20001A400280704721B1028842F48072028018
:101F300004E002884FF6FF631A400280704721B127
:101F4000028842F40072028004E002884FF6FF53D8
:101F50001A400280704700002DE9F04385B0044626
:101F60000D460026B1460427DFF8CC80A6884FF640
:101F7000C0700640684600F08BFADDF808802F48F4
:101F8000B8FBF0F01FFA80F946EA0906A68020881F
:101F90004FF6FE71084020800026294928688842B3
:101FA0000CD828684000B8FBF0F087B2042F00DAA4
:101FB00004273E4309F10100208427E0E8884BF61E
:101FC000FF71884206D1286800EB4000B8FBF0F0B2
:101FD00087B209E0286800EBC00101EB0010B8FBF4
:101FE000F0F087B247F48047C7F30B0008B947F019
:101FF000010747F4004006434FF4967009FB00F0D8
:102000004FF47A7190FBF1F0401C2084A683208865
:1020100040F00100208026884FF6F5300640A88861
:102020006989084306432680A889298908432081B5
:1020300005B0BDE8F083000000127A0040420F00B6
:10204000A086010012B141F0010102E04FF6FE73DB
:10205000194001827047018270470146CA1701EB9F
:1020600092729210A1EB820292B9642091FBF0F27D
:1020700000FB121050B94FF4C87091FBF0F200FB56
:10208000121008B1002070470120FCE70120FAE798
:102090000020F8E72DE9F04105460C462046E117FF
:1020A00004EB1161C1F307262046E11704EB11612F
:1020B0000912A4EB0121CFB27E21294800F0E9FFEB
:1020C00000BF4021264800F017FF0028F9D0052165
:1020D000234800F0DEFF00BF4021214800F00CFF44
:1020E0000028F9D029461E4800F0D3FF00BF402148
:1020F0001B4800F001FF0028F9D03146184800F0D5
:10210000C8FF00BF4021164800F0F6FE0028F9D0B5
:102110003946134800F0BDFF00BF4021104800F0D1
:10212000EBFE0028F9D085F00500704080EA070139
:102130000B4800F0AEFF00BF4021094800F0DCFE74
:102140000028F9D0EF21064800F0A3FF00BF40218E
:10215000034800F0D1FE0028F9D0BDE8F08100006E
:102160000048004010B54FF4165000F037FE00F064
:1021700001F810BD10B502A000F086FE10BD0000F1
:102180007E031E1DEF00000000BFFEE77047000049
:1021900070B5002100230F22C47804B3154C2468C5
:1021A00004F4E064C4F5E064210AC1F10403CA4008
:1021B000447804FA03F184781440214309010E4C59
:1021C0000678A155047804F01F050124AC40057879
:1021D0006D11AD0005F1E025C5F8004109E0047876
:1021E00004F01F050124AC40044D0678761145F833
:1021F000264070BD0CED00E000E400E080E100E06E
:1022000002490143024A1160704700000000FA05CC
:102210000CED00E070B500241BE022460021782080
:10222000FFF722FE102200217820FFF71DFE00227A
:1022300011467820FFF718FE002506E00022402115
:102240007820FFF711FE681CC5B2842DF6DB601CF8
:10225000C4B2B82CE1DB70BD10B500F005F8FFF793
:10226000D9FF00F00FF810BD08B505A00068009078
:1022700003236A4600217820FFF7AEFD08BD000069
:10228000AE8D100000B587B01C2206A16846FEF78F
:102290002CF81C236A4600217820FFF79DFD07B02B
:1022A00000BD0000AE0010D580A83FD300B0408D27
:1022B00014A1C8DA1281FFD9F1DB302000A4A6AF47
:1022C0002DE9F04707460C4615464FF00009CA466F
:1022D00037E03846791CCFB2B030C2B20021782046
:1022E000FFF7C2FD2646E01704EB10700011A4EBC7
:1022F0000010801CC2B200217820FFF7B5FDE01766
:1023000004EB107000111030C2B200217820FFF7EA
:10231000ABFD4FF0000811E05046411C01F0FF0AF0
:1023200000EB0510A0F500700A490A5C40217820F6
:10233000FFF79AFD08F1010000F0FF08B8F1080F5F
:10234000EADB4846411C01F0FF090228C1DBBDE879
:10235000F08700006035000870B506460D4614464B
:1023600009E014F8012B28466B1CDDB2C006010EF3
:102370003046FFF7A5FF20780028F2D170BD00009D
:10238000014908627047000000000E4270470000DB
:1023900029B1064AD2690243044BDA6104E0034AD8
:1023A000D2698243014BDA6170470000001002409D
:1023B00029B1064A92690243044B9A6104E0034A38
:1023C00092698243014B9A617047000000100240FD
:1023D00001490860704700004004424210B500F017
:1023E00031F84FF4803000F0EFF800F073F9044654
:1023F00034B34FF4E0114FF4803000F043F9002083
:1024000000F0D6F84FF4806000F01EF9002000F0D4
:1024100027F90220FFF704FC1020FFF7F3FB01204F
:1024200000F02AF900BF392000F09CF80028FAD00B
:10243000022000F043F900BF00F0B2F80828FBD1F9
:1024400010BD00000F48006840F001000D49086011
:10245000084640680C4908400A4948600846006838
:102460000A490840074908600846006820F48020AF
:1024700008600846406820F4FE0048604FF41F00E2
:1024800088607047001002400000FFF8FFFFF6FE72
:1024900030B500210022002400232D4D6D6805F089
:1024A0000C0121B1042905D0082923D105E0294DCB
:1024B000056022E0274D05601FE0254D6D6805F49D
:1024C0007012234D6D6805F48034022505EB9242AD
:1024D0001CB9214D554305600BE01D4D6D6805F499
:1024E00000351DB11C4D5543056002E0194D5543A3
:1024F000056002E0174D056000BF00BF144D6D6818
:1025000005F0F0010909154D6B5C0568DD4045607B
:102510000F4D6D6805F4E061090A104D6B5C45686C
:10252000DD4085600A4D6D6805F46051C90A0B4DA8
:102530006B5C4568DD40C560054D6D6805F4404144
:10254000890B074D6B5CC568B5FBF3F5056130BDC4
:102550000010024000127A0000093D000000002037
:102560001000002010B501460022002300204A116F
:10257000012A02D1094C236806E0022A02D1074C45
:10258000236A01E0054C636A01F01F0201249440B4
:102590001C400CB1012000E0002010BD00100240E2
:1025A0000248406800F00C00704700000010024034
:1025B00001460020034A506820F0F00008435060B4
:1025C00070470000001002401149096821F4803171
:1025D0000F4A11601146096821F480211160B0F59D
:1025E000803F03D0B0F5802F0ED106E0084909687E
:1025F00041F48031064A116007E00549096841F459
:10260000A021034A116000E000BF00BF7047000036
:102610000010024000210B4A11700A4A203A82F849
:102620002010012802D0042808D103E00121054A26
:10263000117004E00521034A117000E000BF00BFE3
:10264000704700002010024001460020034A5068F5
:1026500020F4E06008435060704700000010024022
:1026600001460020034A506820F4605040EAC1004F
:102670005060704700100240014908667047000032
:102680000000424202460020044B586820F47C10AF
:1026900042EA01031843014B5860704700100240A2
:1026A00001490860704700003C0442420249096A3F
:1026B0000143014A116270470010024001460020A8
:1026C000034A506820F00300084350607047000040
:1026D0000010024038B5002000900024002500BF03
:1026E0003120FFF73FFF05460098401C00900098FE
:1026F000B0F5A06F01D0002DF2D03120FFF732FFEE
:1027000008B1012400E00024204638BD10B528207F
:10271000FFF752FA4AF2A55188420CD17B20FFF70D
:1027200021FF10B97A20FFF71DFF0120FFF7B8FF46
:1027300000F0A4F906E000F001F94AF2A5510420E6
:10274000FFF74EFA01214FF0C050FFF721FE0120A4
:10275000FFF716FE0020FFF73DFA8020FFF71EFA74
:1027600010BD00000348008840F0100001490880B7
:102770007047000004280040034800884FF6EF71BE
:1027800008400149088070470428004000210348A0
:102790000188001F008841EA004070471C28004063
:1027A00070B5FFF7F3FF06463B48B6FBF0F4002C8C
:1027B00038D040F2B2750DE02846FFF74EFC28B144
:1027C000B4F5B77F01D3641E00E006E0A4F26D14F7
:1027D000681C85B2B4F5B67FEED800BF2F480580DF
:1027E000012517E02D480088FFF737FC30B1022D96
:1027F00004D11D2C01D3641E00E00DE0681E2849A1
:10280000085CA04203D8681E085C241A00E003E0BC
:10281000681C85B21C2CE5D200BF22490D70601CDB
:10282000214908701C48B6FBF0F100FB11604FF421
:102830006161B0FBF1F01D4908701748B6FBF0F17B
:1028400000FB11604FF46161B0FBF1F201FB12007B
:102850003C21B0FBF1F0164908700F48B6FBF0F1CF
:1028600000FB11604FF46161B0FBF1F201FB12005B
:102870003C21B0FBF1F201FB12000E4908700A483E
:102880000278084801780548008800F017F80A49DE
:102890000870012070BD0000805101001C00002064
:1028A000240000201E0000201F0000202000002027
:1028B000210000202200002023000020F0B5034664
:1028C0000C4615461846DF1703EB1777C7F30716B4
:1028D000DF1703EB17773F11A3EB0717F9B2132E9E
:1028E00002DD01F16400C1B20846CF1701EB977712
:1028F00001EBA707BAB2072092FBF0F700FB172005
:1029000082B25719601EDFF830C01CF8000038444E
:1029100082B2CF1701EB9777BF10A1EB87071FB9E2
:10292000032C01DA501E82B2072092FBF0F700FB65
:102930001720C0B2F0BD00003000002010B501210A
:102940004FF0C050FFF724FD0120FFF719FDFFF7FE
:102950001CF90120FFF75EFE00BF4120FFF702FED9
:102960000028FAD04FF48070FFF7A0FE0120FFF797
:1029700097FE00F083F800F077F847F6FF7000F05C
:1029800011F800F071F810BD00B50246FFF7EAFE3D
:10299000100C03490880091D0A80FFF7EDFE00BDF9
:1029A0001828004000B50246FFF7DCFEC2F30340E2
:1029B00003490880091D0A80FFF7DEFE00BD000004
:1029C000082800402DE9F05F06460F4690469946DC
:1029D000DDE90AAB002440F2B270864203DB40F628
:1029E0003300864202DD0020BDE8F09F40F2B27560
:1029F00009E01A4804442846FFF72FFB08B118489D
:102A00000444681C85B2B542F3DB01250FE0681E63
:102A10001449085C124901FB00443046FFF71DFBD6
:102A200018B1022D01D10E480444681C85B2BD4284
:102A3000EDDBA8F101000A4901FB00444FF461609D
:102A400000FB09443C2000FB0A445C442046FFF79D
:102A50009BFF00F009F80120C6E700008033E10188
:102A6000805101002400002000BF0348008800F0CE
:102A700020000028F9D0704704280040074800884B
:102A80004FF6F77108400549088000BF03480088E9
:102A900000F008000028F9D070470000042800402A
:102AA000704710B500F002F810BD00000CB5002012
:102AB000019000903348006840F48030314908604C
:102AC00000BF3048006800F4003000900198401CBE
:102AD0000190009818B90198B0F5A06FF1D129487C
:102AE000006800F4003010B10120009001E00020E7
:102AF00000900098012843D12348006840F010005E
:102B0000214908600846006820F003000860084674
:102B1000006840F0020008601A484068194948609F
:102B20000846406848600846406840F48060486055
:102B30000846406820F47C1048600846406840F42D
:102B4000E81048600846006840F08070086000BFE8
:102B50000C48006800F000700028F9D0094840686F
:102B600020F00300074948600846406840F0020032
:102B7000486000BF0348406800F00C000828F9D105
:102B80000CBD000000100240002002407047000011
:102B900010B51348006840F001001149086008466C
:102BA0004068104908400E494860084600680E49D0
:102BB00008400B4908600846006820F4802008603F
:102BC0000846406820F4FE0048604FF41F0088600B
:102BD000FFF767FF4FF000600449086010BD000078
:102BE000001002400000FFF8FFFFF6FE08ED00E0D5
:102BF00008B501210420FFF7DBFB0F20ADF8000032
:102C000048208DF8030069460148FFF715F808BD14
:102C10000008014010B540F22551204800F079F934
:102C200000283AD01D4800F02FFAC4B221461CA05B
:102C300000F08CF81B48008800F4004068BB19487D
:102C4000008800F4804060B10A2C06D11548008845
:102C500040F40040134908801FE00020114908801B
:102C60001BE00D2C06D10F48008840F480400D4930
:102C7000088012E00B4801880088401C094A108037
:102C8000C1F30D0008490C5410460088C0F30D0034
:102C9000C72802DD00201146088010BD0038014021
:102CA00025630000180000203C00002010B586B00D
:102CB0000446012144F20400FFF77AFB4FF4007050
:102CC000ADF8140018208DF8170003208DF81600B9
:102CD00005A91C48FEF7B0FF4FF48060ADF8140062
:102CE00004208DF8170005A91648FEF7A5FF25203A
:102CF0008DF8100003208DF811008DF812000120CE
:102D00008DF8130004A8FFF743FA00940020ADF8F3
:102D10000400ADF80600ADF80800ADF80C000C207A
:102D2000ADF80A006946084800F042F9012240F275
:102D30002551054800F017F90121034800F0D0F8AB
:102D400006B010BD00080140003801400FB410B5B6
:102D5000B4B0002437A80090C92101A8009B369A7E
:102D6000FDF78AFA0EE02046621CD4B201AA115C7B
:102D70000B4800F08EF900BF0948008800F04000C1
:102D80000028F9D0C82C04DA01A8FDF78FFAA04278
:102D9000E9D80020009034B010BC5DF814FB0000AE
:102DA0000038014010B540F225510A4800F0B1F852
:102DB00070B9084800F068F9C4B2532C03D101205F
:102DC0000549087004E04B2C02D10220024908702A
:102DD00010BD0000004800401A00002010B586B069
:102DE000044601210820FFF7E3FA01218804FFF7D8
:102DF000CFFA4FF40060ADF8140004208DF81700EE
:102E000005A91F48FEF718FF4FF48060ADF81400C5
:102E100018208DF8170003208DF8160005A9184812
:102E2000FEF70AFF4FF4E060FFF7EAF927208DF87C
:102E3000100000208DF8120001208DF8130004A866
:102E4000FFF7A6F900940020ADF80400ADF80600E5
:102E5000ADF80800ADF80C000C20ADF80A0069468A
:102E6000084800F0A5F8002240F22551054800F07E
:102E70007AF80121034800F033F806B010BD0000D5
:102E8000000C0140004800400FB410B5B4B000245D
:102E900037A80090C92101A8009B369AFDF7ECF9EC
:102EA0000EE02046621CD4B201AA115C0B4800F06F
:102EB000F0F800BF0948008800F040000028F9D071
:102EC000C82C04DA01A8FDF7F1F9A042E9D80020E6
:102ED000009034B010BC5DF814FB000000480040C6
:102EE00021B1828942F40052828104E082894DF648
:102EF000FF731A408281704702460020B1F5007FBF
:102F000000D100BF13880B400BB1012000E000206E
:102F1000704770B50246002400230025002040F6CB
:102F20006A16B14200D100BFC1F3421501F01F0380
:102F3000012606FA03F3012D02D19689334006E0FB
:102F4000022D02D1168A334001E0968A33400C12DA
:102F5000012606FA04F41688344013B10CB101209E
:102F600000E0002070BDF0B50346002400260025D7
:102F7000002040F66A17B94200D100BF1846C1F3DD
:102F8000421401F01F06012707FA06F5012C01D1B2
:102F90000C3004E0022C01D1103000E014301AB1E2
:102FA00007682F43076002E00768AF430760F0BD82
:102FB0002DE9F04786B005460E460024A24600BF24
:102FC000A1460027B08900B100BF2F462C8A4CF6DD
:102FD000FF700440F08804432C82AC894EF6F31055
:102FE0000440B08831890843718908430443AC81A7
:102FF000AC8A4FF6FF400440B0890443AC8201A87C
:10300000FFF746FA1F48874202D1DDF810A001E021
:10301000DDF80CA0A88900F4004040B10AEBCA001A
:1030200000EB0A1031684900B0FBF1F807E00AEB49
:10303000CA0000EB0A1031688900B0FBF1F8642087
:10304000B8FBF0F004012009642101FB1089A88974
:1030500000F4004040B1322000EBC900B0FBF1F0B9
:1030600000F00700044308E0322000EB091064215F
:10307000B0FBF1F000F00F0004432C8106B0BDE876
:10308000F08700000038014001468888C0F308003E
:103090007047C1F308028280704700BFFEE7490015
:1030A00050EAC12018BF04204A0D18BF40F00100AB
:1030B00040F2FF72B2EB515F08BF40F002000128FE
:1030C00008BF0520704730380A2801D20120704718
:1030D0000020704700BF704700B5034603E04FF47F
:1030E0007A7000F006F8181EA3F101018BB2F6D138
:1030F00000BD00EBC001C9004FF0E022516100218A
:1031000091610521116100BF4FF0E021096901F4CF
:1031100080310029F8D004214FF0E022116170477E
:103120001CB54FF4C870FFF7D7FFFFF757F9FFF74B
:10313000EDFAFFF75DFDFEF715FE4FF4E130FFF706
:10314000B5FDFFF789F8FFF70DF8E1A20021084669
:10315000FFF702F9BAE1E148008800F44040002896
:1031600070D0DE480088C0F30D000E286AD1DC481C
:10317000007830384FF47A714843D949497830396A
:1031800001EBC10202EB011100EB8101D448807810
:10319000303800EB800001EB4001D148C078303876
:1031A0000844D0490880CE4840793038CC49097964
:1031B000303901EB810100EB4100CB490870C84870
:1031C000C0793038C6498979303901EB810100EB8B
:1031D0004100C6490870C248407A3038C049097A6F
:1031E000303901EB810100EB4100C1490870BC4856
:1031F000C07A3038BA49897A303901EB810100EB65
:103200004100BC490870B648407B3038B449097B5E
:10321000303901EB810100EB4100B74908700846E5
:103220000078B4490978CDE90010B1480378AF4877
:103230000278AD480178AB480088FFF7C3FB002057
:10324000A6490880FFF7ACFA002857D0A8480078B4
:103250000A2190FBF1F0303084B222460021022096
:10326000FFF72EF8A24800780A2190FBF1F201FB4B
:103270001200303084B2224608210220FFF720F8E5
:103280003A2210210220FFF71BF89A4800780A2101
:1032900090FBF1F0303084B2224618210220FFF773
:1032A0000FF8944800780A2190FBF1F201FB12001C
:1032B000303084B2224620210220FFF701F83A2262
:1032C00028210220FEF7FCFF8B4800780A2190FBA2
:1032D000F1F0303084B2224630210220FEF7F0FFB8
:1032E000854800780A2190FBF1F201FB1200303092
:1032F00084B2224638210220FEF7E2FF01217F48F6
:10330000FEF725FD00287DD11420FFF7E5FE012101
:103310007A48FEF71CFD0028F5D10C214120FEF76C
:10332000B9FE734800780A2190FBF1F0C8B17048EB
:10333000007890FBF1F0012804D10B214120FEF729
:10334000A9FE0EE06A4800780A2190FBF1F0401CCB
:1033500084B221464120FEF79DFE0B214120FEF75D
:1033600099FE634800780A2190FBF1F201FB1200FC
:1033700048B95F48007890FBF1F020B10D21412061
:10338000FEF788FE10E05A4800780A2190FBF1F21F
:1033900001FB1200401C84B221464120FEF77AFE58
:1033A0000D214120FEF776FE524800780A2190FB5D
:1033B000F1F050B94F48007890FBF1F0401C84B216
:1033C00021464120FEF766FE1AE04A4800780A21AD
:1033D00090FBF1F0012804D10B214120FEF75AFEA9
:1033E0000EE0444800780A2190FBF1F0401C84B2C2
:1033F00021464120FEF74EFE0B214120FEF74AFEFA
:103400003C4800E062E000780A2190FBF1F201FB09
:10341000120010B93748007860B9364800780A21A0
:1034200090FBF1F201FB1200401C84B221464120C6
:10343000FEF730FE0E214120FEF72CFE2E480078CC
:103440000A2190FBF1F050B92B48007890FBF1F085
:10345000401C84B221464120FEF71CFE1AE026489B
:1034600000780A2190FBF1F0012804D10B214120C2
:10347000FEF710FE0EE0204800780A2190FBF1F0E4
:10348000401C84B221464120FEF704FE0B2141205E
:10349000FEF700FE184800780A2190FBF1F201FBCC
:1034A000120010B91448007860B9134800780A2156
:1034B00090FBF1F201FB1200401C84B22146412036
:1034C000FEF7E8FD0F214120FEF7E4FD43E6000092
:1034D00052544320535452494B45000018000020D9
:1034E0003C0000201C0000201E0000201F000020C7
:1034F00020000020210000202200002000080140C0
:1035000010B500290AD00878002807D0054878446B
:10351000FDF740FF002801D0002010BD024878448C
:1035200010BD0000720700006A07000010B50029F6
:103530000AD00878002807D005487844FDF72AFF0C
:10354000002801D0002010BD0248784410BD0000C2
:10355000620700005A070000FDF72DBBFDF762BCB3
:10356000000000000000000000000000000000005B
:10357000000038FCFC3800000000000D0D000000C9
:10358000000E1E00001E0E000000000000000000E3
:1035900020F8F820F8F82000020F0F020F0F0200A9
:1035A000387C444747CC98000306041C1C070300E2
:1035B00030300080C06030000C060301000C0C00AD
:1035C00080D87CE4BCD84000070F0808070F08002B
:1035D00000101E0E000000000000000000000000AF
:1035E0000000F0F80C040000000003070C080000C5
:1035F0000000040CF8F000000000080C07030000B5
:1036000080A0E0C0C0E0A08000020301010302002E
:10361000008080E0E08080000000000303000000E4
:1036200000000000000000000000101E0E0000005E
:10363000808080808080800000000000000000000A
:1036400000000000000000000000000C0C00000062
:1036500000000080C06030000C0603010000000084
:10366000F8FC04C424FCF800070F0908080F070041
:10367000001018FCFC0000000008080F0F080800EC
:10368000080C84C4643C18000E0F0908080C0C00D8
:10369000080C444444FCB800040C0808080F070058
:1036A000C0E0B098FCFC8000000000080F0F08008C
:1036B0007C7C4444C4C48400040C0808080F070040
:1036C000F0F84C4444C08000070F0808080F0700BA
:1036D0000C0C0484C47C3C0000000F0F00000000B0
:1036E000B8FC444444FCB800070F0808080F070062
:1036F000387C444444FCF800000808080C07030028
:10370000000000303000000000000006060000004D
:1037100000000030300000000000080E060000002D
:103720000080C0603018080000000103060C08008B
:1037300040404040404040000202020202020200BB
:103740000008183060C0800000080C06030100006B
:10375000181C04C4E43C18000000000D0D0000001B
:10376000F0F808C8C8F8F000070F080B0B0B0100B1
:10377000E0F0988C98F0E0000F0F0000000F0F00B1
:1037800004FCFC4444FCB800080F0F08080F0700B5
:10379000F0F80C04040C180003070C08080C0600D1
:1037A00004FCFC040CF8F000080F0F080C070300E1
:1037B00004FCFC44E40C1C00080F0F08080C0E006D
:1037C00004FCFC44E40C1C00080F0F08000000007F
:1037D000F0F80C84848C980003070C0808070F008D
:1037E000FCFC404040FCFC000F0F0000000F0F00ED
:1037F000000004FCFC0400000000080F0F0800009B
:1038000000000004FCFC0400070F08080F0700007C
:1038100004FCFCC0F03C0C00080F0F00010F0E0070
:1038200004FCFC0400000000080F0F08080C0E0048
:10383000FCFC387038FCFC000F0F0000000F0F007C
:10384000FCFC3870E0FCFC000F0F0000000F0F00C4
:10385000F0F80C040CF8F00003070C080C07030048
:1038600004FCFC44447C3800080F0F0800000000F2
:10387000F8FC040404FCF800070F080E3C3F270086
:1038800004FCFC44C4FC3800080F0F00000F0F00BC
:10389000183C6444C49C1800060E0808080F070072
:1038A000001C0CFCFC0C1C000000080F0F080000A2
:1038B000FCFC000000FCFC00070F0808080F0700D4
:1038C000FCFC000000FCFC000103060C06030100E8
:1038D000FCFC008000FCFC00030F0E030E0F030035
:1038E0000C3CF0C0F03C0C000C0F0300030F0C006C
:1038F000003C7CC0C07C3C000000080F0F080000AA
:103900001C0C84C4643C1C000E0F0908080C0E003B
:103910000000FCFC0404000000000F0F0808000079
:103920003870E0C0800000000000000103070E00B6
:1039300000000404FCFC0000000008080F0F000059
:10394000080C0603060C0800000000000000000040
:103950000000000000000000202020202020202067
:103960000000030704000000000000000000000049
:1039700000A0A0A0E0C00000070F0808070F080083
:1039800004FCFC2060C08000080F0708080F070037
:10399000C0E0202020604000070F0808080C040049
:1039A00080C06024FCFC0000070F0808070F080017
:1039B000C0E0A0A0A0E0C000070F0808080C0400A9
:1039C00040F8FC440C180000080F0F08000000002D
:1039D000C0E02020C0E02000276F48487F3F000063
:1039E00004FCFC4020E0C000080F0F00000F0F0097
:1039F000000020ECEC0000000000080F0F080000A1
:103A00000000000020ECEC0000307040407F3F00E0
:103A100004FCFC80C0602000080F0F01030E0C00A6
:103A2000000004FCFC0000000000080F0F0800006C
:103A3000E0E060C060E0C0000F0F000F000F0F005B
:103A400020E0C02020E0C000000F0F00000F0F009A
:103A5000C0E0202020E0C000070F0808080F070082
:103A600020E0C02020E0C000407F7F48080F070012
:103A7000C0E02020C0E02000070F08487F7F400002
:103A800020E0C0602060C000080F0F0800000000A8
:103A900040E0A02020604000040C09090B0E040047
:103AA0002020F8FC202000000000070F080C040074
:103AB000E0E00000E0E00000070F0808070F080042
:103AC00000E0E00000E0E0000003070C0C0703004A
:103AD000E0E0000000E0E000070F0C070C0F07001B
:103AE0002060C080C0602000080C0703070C08009D
:103AF000E0E0000000E0E000474F4848683F1F005A
:103B0000606020A0E06020000C0E0B09080C0C0087
:103B1000004040F8BC040400000000070F08080043
:103B2000000000BCBC0000000000000F0F000000FF
:103B3000000404BCF84040000008080F0700000023
:103B4000080C040C080C0400000000000000000039
:103B500080C0603060C080000707040404070700CD
:103B6000000000000000000000000000303132338F
:103B700034353637383941424344454640305800A1
:103B800030313233343536373839616263646566D3
:103B9000403078000400000800000000000000022F
:103BA0000001000010303132333435363738396196
:103BB000626364656678700030313233343536378D
:103BC0003839414243444546585000000240000005
:103BD000000000A00000000005400000000000C838
:103BE000000000000C4000000000409C00000000AD
:103BF000194000000020BCBE00000000344000005E
:103C0000BFC91B8E00000004B5400000504BCFD050
:103C10006607E2CF010000006C4100003E8251AA1D
:103C2000DFEEA73401000000D9420000DCB5A0E2BD
:103C30003A301F97FFFFFFFFB4450000FD25A0C8E5
:103C4000E9A3C14FFFFFFFFFFF3F0000000000801E
:103C500000000000FF3F00000000008000000000A6
:103C6000AC3D0008000000203C00000028010008D6
:103C7000E83D00083C0000202C070000440100083B
:103C80001C00000043000000F8FFFFFF0C000000D4
:103C90000E0000000F0000002E00000010010000C8
:103CA00043000000F8FFFFFF00404040404040401C
:103CB00040404141414141404040404040404040FF
:103CC00040404040404040404005020202020202A3
:103CD00002020202020202020220202020202020F2
:103CE0002020200202020202020290909090909006
:103CF00010101010101010101010101010101010C4
:103D00001010101002020202020288888888888837
:103D10000808080808080808080808080808080823
:103D2000080808080202020240000000000000002B
:103D30000000000000000000000000000000000083
:103D40000000000000000000000000000000000073
:103D50000000000000000000000000000000000063
:103D60000000000000000000000000000000000053
:103D70000000000000000000000000000000000043
:103D80000000000000000000000000000000000033
:103D90000000000000000000000000000000000023
:103DA0000000000000000000000000000000000013
:103DB00001020304010203040607080902040608BD
:103DC00000000000000000000000000000000000F3
:103DD0001F1C1F1E1F1E1F1F1E1F1E1F000303066A
:083DE0000104060205000305C1
:04000005080000ED02
:00000001FF
