:020000040800F2
:10000000600600206D0100082B040008230400088E
:100010002704000827020008C10A000800000000A9
:100020000000000000000000000000004D09000872
:100030002B020008000000002D040008390A000807
:100040008701000887010008870100088701000870
:100050008701000887010008870100088701000860
:100060008701000887010008870100088701000850
:100070008701000887010008870100088701000840
:100080008701000887010008870100088701000830
:100090008701000887010008870100088701000820
:1000A0008701000887010008870100088701000810
:1000B0008701000887010008870100088701000800
:1000C00087010008870100088701000887010008F0
:1000D00087010008870100088701000887010008E0
:1000E00087010008870100088701000800F002F876
:1000F00000F02CF80AA090E8000C82448344AAF196
:100100000107DA4501D100F021F8AFF2090EBAE893
:100110000F0013F0010F18BFFB1A43F0010318473B
:100120004C0A00005C0A0000002300240025002681
:10013000103A28BF78C1FBD8520728BF30C148BF4A
:100140000B6070471FB51FBD10B510BD00F031F832
:100150001146FFF7F7FF00F0D9FC00F04FF803B4A9
:10016000FFF7F2FF03BC00F057F800000948804792
:1001700009480047FEE7FEE7FEE7FEE7FEE7FEE789
:10018000FEE7FEE7FEE7FEE704480549054A064BA1
:10019000704700003D0A0008ED00000860000020E4
:1001A0006006002060020020600200207047704757
:1001B0007047754600F02CF8AE4605006946534678
:1001C00020F00700854618B020B5FFF7DDFFBDE839
:1001D00020404FF000064FF000074FF000084FF0AE
:1001E000000B21F00701AC46ACE8C009ACE8C0093F
:1001F000ACE8C009ACE8C0098D46704710B50446AC
:10020000AFF300802046BDE81040FFF7A8BF000014
:10021000004870470000002001491820ABBEFEE7EF
:1002200026000200704700BFFEE7704705490968D5
:1002300021F01001034A1160114609680143116061
:10024000704700000020024001460020034A106869
:1002500000F03800084310607047000000200240A2
:100260002DE9F0410246002500260020002300244D
:10027000002791F803C00CF00F0591F803C00CF0B3
:10028000100CBCF1000F03D091F802C04CEA050538
:1002900091F800C0BCF1000F31D0146800202BE0B1
:1002A0004FF0010C0CFA00F3B1F800C00CEA0306A1
:1002B0009E4220D183004FF00F0C0CFA03F7BC4391
:1002C00005FA03FC4CEA040491F803C0BCF1280FC2
:1002D00006D14FF0010C0CFA00FCC2F814C00AE081
:1002E00091F803C0BCF1480F05D14FF0010C0CFA96
:1002F00000FCC2F810C0401C0828D1D31460B1F82B
:1003000000C0BCF1FF0F34DD546800202EE000F186
:10031000080C4FF0010808FA0CF3B1F800C00CEA21
:1003200003069E4221D183004FF00F0C0CFA03F715
:10033000BC4305FA03FC4CEA040491F803C0BCF189
:10034000280F05D100F1080C08FA0CF8C2F8148047
:1003500091F803C0BCF1480F07D100F1080C4FF031
:10036000010808FA0CF8C2F81080401C0828CED307
:100370005460BDE8F0810000F0B50A460023002477
:100380000021002500F00046B6F1004F02D11D4EBD
:10039000F16901E01B4E7168C0F3034583B200F4BC
:1003A0004016B6F5401F08D121F07061154E7668F1
:1003B00026F07066134F7E6012E000F48016B6F5EA
:1003C000801F06D1032606FA05F4A14341F07061AF
:1003D00006E0460D360103FA06F6B14341F07061BE
:1003E00022B1460D360103FA06F6314300F000460D
:1003F000B6F1004F02D1034EF16101E0014E716090
:10040000F0BD0000000001400246002093680B4050
:100410000BB1012000E0002070474161704701618D
:10042000704700BFFEE700BFFEE77047704700005F
:1004300029B1064A92690243044B9A6104E0034AD7
:1004400092698243014B9A6170470000001002409C
:1004500010B500F035F84FF4803000F089F800F066
:10046000E5F80446012C24D14FF4E011000400F01B
:10047000C3F8002000F070F8A00200F09FF8002000
:1004800000F0A8F80220FFF7DFFE1020FFF7CEFEF5
:10049000012000F0ABF800BF392000F037F8002849
:1004A000FAD0022000F0B6F800BF00F04DF808289E
:1004B000FBD1012144F27C00FFF7BAFF10BD000020
:1004C0000F48006840F001000D4908600846406888
:1004D0000C4908400A494860084600680A49084033
:1004E000074908600846006820F480200860084634
:1004F000406820F4FE0048604FF41F008860704799
:10050000001002400000FFF8FFFFF6FE10B50146A4
:100510000022002300204A11012A02D1094C23683D
:1005200006E0022A02D1074C236A01E0054C636A07
:1005300001F01F02012494401C400CB1012000E096
:10054000002010BD001002400248406800F00C007E
:10055000704700000010024001460020034A506826
:1005600020F0F00008435060704700000010024087
:100570001149096821F480310F4A11601146096858
:1005800021F480211160B0F5803F03D0B0F5802FB9
:100590000ED106E00849096841F48031064A11602D
:1005A00007E00549096841F4A021034A116000E011
:1005B00000BF00BF7047000000100240014600204D
:1005C000034A506820F4E060084350607047000020
:1005D0000010024001460020034A506820F4605099
:1005E00040EAC100506070470010024001490866AF
:1005F000704700000000424202460020044B586849
:1006000020F47C1042EA01031843014B5860704704
:100610000010024001460020034A506820F0030009
:1006200008435060704700000010024038B50020B9
:1006300000900024002500BF3120FFF767FF05462A
:100640000098401C00900098B0F5A06F01D0002DDC
:10065000F2D03120FFF75AFF08B1012400E0002456
:10066000204638BD10B5044618211A48FFF7D5FEBC
:100670004FF440711748FFF7D2FE204600F022FAEF
:100680004FF402711348FFF7C8FE4FF48871114808
:10069000FFF7C5FE204600F015FA4FF440710D48F3
:1006A000FFF7BBFE18210B48FFF7B9FE204600F00C
:1006B00009FA4FF488710748FFF7AFFE4FF4027153
:1006C0000448FFF7ACFE204600F0FCF900F034F9D6
:1006D00010BD0000000C014010B504464FF44071FD
:1006E0001948FFF79AFE18211748FFF798FE204691
:1006F00000F0E8F94FF402711348FFF78EFE4FF453
:1007000088711148FFF78BFE204600F0DBF91821B5
:100710000D48FFF782FE4FF440710B48FFF77FFE54
:10072000204600F0CFF94FF488710748FFF775FEB7
:100730004FF402710448FFF772FE204600F0C2F940
:1007400000F0FAF810BD0000000C014010B504469E
:100750004FF48C713248FFF760FE4FF4007130485F
:10076000FFF75DFE204600F0ADF918212C48FFF799
:1007700054FE4FF440712A48FFF751FE204600F026
:10078000A1F94FF406712648FFF747FE4FF4807138
:100790002348FFF744FE204600F094F94FF402711D
:1007A0001F48FFF73AFE4FF488711D48FFF737FEE8
:1007B000204600F087F94FF442711948FFF72DFEEB
:1007C00010211748FFF72BFE204600F07BF94FF46D
:1007D00040711348FFF721FE18211148FFF71FFE53
:1007E000204600F06FF94FF444710D48FFF715FEF5
:1007F00008210B48FFF713FE204600F063F94FF481
:1008000088710748FFF709FE4FF402710448FFF7AB
:1008100006FE204600F056F900F08EF810BD0000EC
:10082000000C014010B504464FF444713248FFF704
:10083000F4FD08213048FFF7F2FD204600F042F9B0
:100840004FF440712C48FFF7E8FD18212A48FFF7C4
:10085000E6FD204600F036F94FF442712648FFF7D6
:10086000DCFD10212448FFF7DAFD204600F02AF9CC
:100870004FF402712048FFF7D0FD4FF488711E48F5
:10088000FFF7CDFD204600F01DF94FF406711A4820
:10089000FFF7C3FD4FF480711748FFF7C0FD2046F6
:1008A00000F010F918211448FFF7B7FD4FF440711C
:1008B0001148FFF7B4FD204600F004F94FF48C71A5
:1008C0000D48FFF7AAFD4FF400710B48FFF7A7FD95
:1008D000204600F0F7F84FF488710748FFF79DFDB8
:1008E0004FF402710448FFF79AFD204600F0EAF841
:1008F00000F022F810BD0000000C014008B50121F5
:100900000920FFF795FD4FF44670ADF80000102068
:100910008DF8030003208DF8020001210448FFF741
:100920002BFD69460348FFF79BFC00F005F808BD66
:1009300000043000000C014010B54FF4467102482D
:10094000FFF76BFD10BD0000000C0140704710B5B3
:1009500000F002F810BD00000CB5002001900090DE
:100960003348006840F480303149086000BF3048A7
:10097000006800F4003000900198401C019000983D
:1009800018B90198B0F5A06FF1D12948006800F4BA
:10099000003010B10120009001E00020009000988C
:1009A000012843D12348006840F010002149086025
:1009B0000846006820F0030008600846006840F020
:1009C000020008601A4840681949486008464068B3
:1009D00048600846406840F48060486008464068C7
:1009E00020F47C1048600846406840F4E8104860F5
:1009F0000846006840F08070086000BF0C4800683E
:100A000000F000700028F9D00948406820F0030089
:100A1000074948600846406840F00200486000BF4F
:100A20000348406800F00C000828F9D10CBD000014
:100A300000100240002002407047000010B513482B
:100A4000006840F0010011490860084640681049FC
:100A500008400E494860084600680E4908400B49A6
:100A600008600846006820F4802008600846406856
:100A700020F4FE0048604FF41F008860FFF767FF16
:100A80004FF000600449086010BD000000100240F3
:100A90000000FFF8FFFFF6FE08ED00E008B50121B9
:100AA0000420FFF7C5FC0F20ADF8000048208DF8AA
:100AB000030069460148FFF7D3FB08BD0008014069
:100AC00000BFFEE700B5034603E04FF47A7000F084
:100AD00006F8181EA3F101018BB2F6D100BD00EBA0
:100AE000C001C9004FF0E022516100219161052150
:100AF000116100BF4FF0E021096901F48031002944
:100B0000F8D004214FF0E02211617047FFF7A0FCFC
:100B1000FFF7C4FFFFF7F2FE25E001211248FFF7BF
:100B200073FC18B10320FFF7D7FD1CE002210E482B
:100B3000FFF76AFC18B10320FFF794FD13E00421CE
:100B40000948FFF761FC18B10320FFF76BFE0AE0CC
:100B500008210548FFF758FC18B10320FFF7F6FD00
:100B600001E0FFF7E9FED8E7000801407C0B000830
:0C0B7000000000206006000028010008C2
:04000005080000ED02
:00000001FF
