:020000040800F2
:100000006806002089010008470400083F04000832
:1000100043040008430200088109000800000000B2
:100020000000000000000000000000000D080008B3
:10003000470200080000000049040008F908000811
:10004000A3010008A3010008A3010008A301000800
:10005000A3010008A3010008A3010008A3010008F0
:10006000A3010008A3010008A3010008A3010008E0
:10007000A3010008A3010008A3010008A3010008D0
:10008000A3010008A3010008A3010008A3010008C0
:10009000A3010008A3010008A3010008A3010008B0
:1000A000A3010008A3010008A3010008A3010008A0
:1000B000A3010008A3010008A3010008A301000890
:1000C000A3010008A3010008A3010008A301000880
:1000D000A3010008A3010008A3010008A301000870
:1000E000A3010008A3010008A301000800F002F822
:1000F00000F03AF80AA090E8000C82448344AAF188
:100100000107DA4501D100F02FF8AFF2090EBAE885
:100110000F0013F0010F18BFFB1A43F0010318473B
:100120001C0900003C090000103A24BF78C878C1BF
:10013000FAD8520724BF30C830C144BF04680C60ED
:10014000704700000023002400250026103A28BF35
:1001500078C1FBD8520728BF30C148BF0B60704739
:100160001FB51FBD10B510BD00F031F81146FFF7E7
:10017000F7FF00F02BFC00F04FF803B4FFF7F2FF9D
:1001800003BC00F057F800000948804709480047C1
:10019000FEE7FEE7FEE7FEE7FEE7FEE7FEE7FEE737
:1001A000FEE7FEE704480549054A064B7047000094
:1001B000FD080008ED000008680000206806002027
:1001C000680200206802002070477047704775463B
:1001D00000F02CF8AE4605006946534620F00700B3
:1001E000854618B020B5FFF7DDFFBDE820404FF091
:1001F00000064FF000074FF000084FF0000B21F011
:100200000701AC46ACE8C009ACE8C009ACE8C009DD
:10021000ACE8C0098D46704710B50446AFF30080C6
:100220002046BDE81040FFF7A8BF00000048704717
:100230000400002001491820ABBEFEE726000200A2
:10024000704700BFFEE770470549096821F01001BB
:10025000034A1160114609680143116070470000AC
:100260000020024001460020034A106800F03800D8
:100270000843106070470000002002402DE9F04163
:10028000024600250026002000230024002791F8C4
:1002900003C00CF00F0591F803C00CF0100CBCF17A
:1002A000000F03D091F802C04CEA050591F800C098
:1002B000BCF1000F31D0146800202BE04FF0010C8E
:1002C0000CFA00F3B1F800C00CEA03069E4220D1FC
:1002D00083004FF00F0C0CFA03F7BC4305FA03FC44
:1002E0004CEA040491F803C0BCF1280F06D14FF08A
:1002F000010C0CFA00FCC2F814C00AE091F803C02B
:10030000BCF1480F05D14FF0010C0CFA00FCC2F80B
:1003100010C0401C0828D1D31460B1F800C0BCF153
:10032000FF0F34DD546800202EE000F1080C4FF080
:10033000010808FA0CF3B1F800C00CEA03069E426B
:1003400021D183004FF00F0C0CFA03F7BC4305FAE0
:1003500003FC4CEA040491F803C0BCF1280F05D15A
:1003600000F1080C08FA0CF8C2F8148091F803C0E8
:10037000BCF1480F07D100F1080C4FF0010808FA52
:100380000CF8C2F81080401C0828CED35460BDE899
:10039000F0810000F0B50A4600230024002100256A
:1003A00000F00046B6F1004F02D11D4EF16901E0A8
:1003B0001B4E7168C0F3034583B200F44016B6F5D6
:1003C000401F08D121F07061154E766826F07066E6
:1003D000134F7E6012E000F48016B6F5801F06D140
:1003E000032606FA05F4A14341F0706106E0460DCC
:1003F000360103FA06F6B14341F0706122B1460DB1
:10040000360103FA06F6314300F00046B6F1004F1C
:1004100002D1034EF16101E0014E7160F0BD0000B8
:10042000000001400246002093680B400BB1012000
:1004300000E000207047416170470161704700BFD4
:10044000FEE700BFFEE770477047000029B1064A8B
:1004500092690243044B9A6104E0034A9269824321
:10046000014B9A61704700000010024010B500F087
:1004700035F84FF4803000F089F800F0E5F80446D4
:10048000012C24D14FF4E011000400F0C3F8002047
:1004900000F070F8A00200F09FF8002000F0A8F82B
:1004A0000220FFF7DFFE1020FFF7CEFE012000F054
:1004B000ABF800BF392000F037F80028FAD002204E
:1004C00000F0B6F800BF00F04DF80828FBD101217C
:1004D00044F27C00FFF7BAFF10BD00000F4800682F
:1004E00040F001000D490860084640680C4908408A
:1004F0000A494860084600680A49084007490860F8
:100500000846006820F4802008600846406820F40F
:10051000FE0048604FF41F008860704700100240E2
:100520000000FFF8FFFFF6FE10B501460022002391
:1005300000204A11012A02D1094C236806E0022A50
:1005400002D1074C236A01E0054C636A01F01F02E7
:10055000012494401C400CB1012000E0002010BD9B
:10056000001002400248406800F00C007047000094
:100570000010024001460020034A506820F0F000BD
:10058000084350607047000000100240114909689C
:1005900021F480310F4A11601146096821F480214D
:1005A0001160B0F5803F03D0B0F5802F0ED106E08A
:1005B0000849096841F48031064A116007E005499D
:1005C000096841F4A021034A116000E000BF00BFA8
:1005D000704700000010024001460020034A5068A6
:1005E00020F4E060084350607047000000100240B3
:1005F00001460020034A506820F4605040EAC100E0
:1006000050607047001002400149086670470000C2
:100610000000424202460020044B586820F47C103F
:1006200042EA01031843014B586070470010024032
:1006300001460020034A506820F003000843506040
:10064000704700000010024038B5002000900024E0
:10065000002500BF3120FFF767FF05460098401CCA
:1006600000900098B0F5A06F01D0002DF2D031209D
:10067000FFF75AFF08B1012400E00024204638BDEE
:1006800070B504460D46082C59D2DFE804F0040E7C
:1006900018222D38424D4FF444712D48FFF7CBFE00
:1006A00008212B48FFF7C9FE4AE04FF44071284863
:1006B000FFF7C1FE18212648FFF7BFFE40E04FF4C8
:1006C00042712348FFF7B7FE10212148FFF7B5FE1E
:1006D00036E04FF402711E48FFF7ADFE4FF488710B
:1006E0001B48FFF7AAFE2BE04FF406711848FFF7EE
:1006F000A2FE4FF480711648FFF79FFE20E01821FC
:100700001348FFF798FE4FF440711148FFF795FE2C
:1007100016E04FF48C710E48FFF78DFE4FF4007118
:100720000B48FFF78AFE0BE04FF488710848FFF78B
:1007300082FE4FF402710648FFF77FFE00E000BF23
:1007400000BF284600F01EF900F056F870BD00000A
:10075000000C014008B501210920FFF777FE4FF496
:100760004670ADF8000010208DF8030003208DF8CE
:10077000020001210448FFF70DFE69460348FFF718
:100780007DFD00F039F808BD00043000000C014088
:1007900070B505460C461646EC206043C1B23246A1
:1007A000284600F001F870BD70B504460E461546A7
:1007B0001AE054B10F480078401CC0B20D490870CF
:1007C00007280CDD0020087009E00A48017800784D
:1007D000401E084A107011B90720114608702946BA
:1007E00004480078FFF74CFF301EA6F10101CEB29D
:1007F000DFD170BD0000002010B54FF446710248F3
:10080000FFF719FE10BD0000000C0140704710B545
:1008100000F002F810BD00000CB50020019000901F
:100820003348006840F480303149086000BF3048E8
:10083000006800F4003000900198401C019000987E
:1008400018B90198B0F5A06FF1D12948006800F4FB
:10085000003010B10120009001E0002000900098CD
:10086000012843D12348006840F010002149086066
:100870000846006820F0030008600846006840F061
:10088000020008601A4840681949486008464068F4
:1008900048600846406840F4806048600846406808
:1008A00020F47C1048600846406840F4E810486036
:1008B0000846006840F08070086000BF0C4800687F
:1008C00000F000700028F9D00948406820F00300CB
:1008D000074948600846406840F00200486000BF91
:1008E0000348406800F00C000828F9D10CBD000056
:1008F00000100240002002407047000010B513486D
:10090000006840F00100114908600846406810493D
:1009100008400E494860084600680E4908400B49E7
:1009200008600846006820F4802008600846406897
:1009300020F4FE0048604FF41F008860FFF767FF57
:100940004FF000600449086010BD00000010024034
:100950000000FFF8FFFFF6FE08ED00E008B50121FA
:100960000420FFF773FD0F20ADF8000048208DF83C
:10097000030069460148FFF781FC08BD00080140FB
:1009800000BFFEE700B5034603E04FF47A7000F0C5
:1009900006F8181EA3F101018BB2F6D100BD00EBE1
:1009A000C001C9004FF0E022516100219161052191
:1009B000116100BF4FF0E021096901F48031002985
:1009C000F8D004214FF0E02211617047FFF74EFD8F
:1009D000FFF7C4FFFFF7BEFE2DE001211648FFF729
:1009E00021FD28B1032201210846FFF7D1FE22E0B4
:1009F00002211148FFF716FD28B103220121002032
:100A0000FFF7C6FE17E004210B48FFF70BFD28B1E6
:100A1000032264210120FFF7C7FE0CE008210648ED
:100A2000FFF700FD28B1032264210020FFF7BCFE80
:100A300001E0FFF7E1FED0E7000801405C0A000892
:100A4000000000200400000028010008600A0008DF
:100A500004000020640600004401000800000000BB
:04000005080000ED02
:00000001FF
