:020000040800F2
:1000000078060020890100084D0800083104000826
:1000100049080008A7020008390E00080000000087
:10002000000000000000000000000000590B000864
:10003000AB020008000000004F080008450C000853
:10004000A3010008A3010008A3010008A301000800
:10005000A3010008A3010008A3010008A3010008F0
:10006000A3010008A3010008A3010008A3010008E0
:10007000A3010008A3010008A3010008A3010008D0
:10008000A3010008A3010008A3010008A3010008C0
:10009000A3010008A3010008A3010008A3010008B0
:1000A000A3010008A3010008A3010008A3010008A0
:1000B000A3010008A3010008A3010008A301000890
:1000C000A3010008A3010008A3010008A301000880
:1000D000A3010008A3010008A3010008A301000870
:1000E000A3010008A3010008A301000800F002F822
:1000F00000F03AF80AA090E8000C82448344AAF188
:100100000107DA4501D100F02FF8AFF2090EBAE885
:100110000F0013F0010F18BFFB1A43F0010318473B
:10012000B40D0000D40D0000103A24BF78C878C187
:10013000FAD8520724BF30C830C144BF04680C60ED
:10014000704700000023002400250026103A28BF35
:1001500078C1FBD8520728BF30C148BF0B60704739
:100160001FB51FBD10B510BD00F063F81146FFF7B5
:10017000F7FF00F063FE00F081F803B4FFF7F2FF31
:1001800003BC00F089F8000009488047094800478F
:10019000FEE7FEE7FEE7FEE7FEE7FEE7FEE7FEE737
:1001A000FEE7FEE704480549054A064B7047000094
:1001B000490C0008ED0000087800002078060020B7
:1001C000780200207802002010B5203AC0F00B80A1
:1001D000B1E81850203AA0E81850B1E81850A0E84B
:1001E0001850BFF4F5AF5FEA027C24BFB1E81850A5
:1001F000A0E8185044BF18C918C0BDE810405FEA15
:10020000827C24BF51F8043B40F8043B08BF704790
:10021000D20728BF31F8023B48BF11F8012B28BF95
:1002200020F8023B48BF00F8012B70477047704729
:100230007047754600F02CF8AE46050069465346F7
:1002400020F00700854618B020B5FFF7ABFFBDE8EA
:1002500020404FF000064FF000074FF000084FF02D
:10026000000B21F00701AC46ACE8C009ACE8C009BE
:10027000ACE8C009ACE8C0098D46704710B504462B
:10028000AFF300802046BDE81040FFF776BF0000C6
:10029000004870471400002001491820ABBEFEE75B
:1002A00026000200704700BFFEE7704700EBC00168
:1002B000C9004FF0E02251610021916105211161D7
:1002C00000BF4FF0E021096901F480310029F8D026
:1002D00004214FF0E02211617047000005490968D0
:1002E00021F01001034A11601146096801431160B1
:1002F000704700000020024001460020034A1068B9
:1003000000F03800084310607047000000200240F1
:100310002DE9F0410246002500260020002300249C
:10032000002791F803C00CF00F0591F803C00CF002
:10033000100CBCF1000F03D091F802C04CEA050587
:1003400091F800C0BCF1000F31D0146800202BE000
:100350004FF0010C0CFA00F3B1F800C00CEA0306F0
:100360009E4220D183004FF00F0C0CFA03F7BC43E0
:1003700005FA03FC4CEA040491F803C0BCF1280F11
:1003800006D14FF0010C0CFA00FCC2F814C00AE0D0
:1003900091F803C0BCF1480F05D14FF0010C0CFAE5
:1003A00000FCC2F810C0401C0828D1D31460B1F87A
:1003B00000C0BCF1FF0F34DD546800202EE000F1D6
:1003C000080C4FF0010808FA0CF3B1F800C00CEA71
:1003D00003069E4221D183004FF00F0C0CFA03F765
:1003E000BC4305FA03FC4CEA040491F803C0BCF1D9
:1003F000280F05D100F1080C08FA0CF8C2F8148097
:1004000091F803C0BCF1480F07D100F1080C4FF080
:10041000010808FA0CF8C2F81080401C0828CED356
:100420005460BDE8F0810AB1016100E041617047AC
:1004300000BFFEE71FB50121480500F009FA00F0F2
:1004400021F80020ADF804004BF6FF70ADF806006F
:10045000C020ADF808004FF48060ADF80A0000013C
:10046000ADF80C00054800906946054800F0F2F828
:100470000121034800F0ADF81FBD0000400D03004E
:100480000054004008B50121082000F0F1F9C02017
:10049000ADF800001C208DF8030003208DF8020049
:1004A00069460248FFF734FF08BD0000000C014018
:1004B0002DE9F04106460F4615461C4600BF4FF495
:1004C0000031304800F0A9F80028F8D101212D486A
:1004D00000F08BF800BF2C492A4800F065F800288E
:1004E000F9D000223146274800F02EF900BF2749F5
:1004F000244800F059F80028F9D03946214800F086
:100500002CF900BF2149891C1E4800F04DF8002835
:10051000F8D001211B4800F068F800BF1A491948BB
:1005200000F042F80028F9D001223146154800F0C9
:100530000BF900BF1449491C124800F035F8002897
:10054000F8D016E0012C07D100210E4800F020F869
:1005500001210C4800F055F80B493F31094800F0E3
:1005600023F830B1074800F0EBF805F8010B601EE6
:1005700084B2002CE6D10121024800F009F8BDE860
:10058000F0810000005400400100030082000700D9
:1005900021B1028842F48062028004E002884FF6B2
:1005A000FF331A400280704770B5024600240025D0
:1005B00000230020958A138B1B0445EA030626F0CE
:1005C0007F4404EA01068E4201D1012000E00020B0
:1005D00070BD21B1028842F00102028004E002886D
:1005E0004FF6FE731A400280704721B1028842F430
:1005F0008072028004E002884FF6FF631A40028096
:10060000704721B1028842F40072028004E002883F
:100610004FF6FF531A40028070470CB50246002087
:1006200000230193009300920B0F019321F07F416F
:10063000019B1BB1009B1433009303E0090C009B4A
:1006400018330093009B1B680B400BB1012000E0A6
:1006500000200CBD2DE9F04385B004460D46002670
:10066000B1460427DFF8CC80A6884FF6C07006405C
:10067000684600F067F9DDF808802F48B8FBF0F015
:100680001FFA80F946EA0906A68020884FF6FE7117
:100690000840208000262949286888420CD828680C
:1006A0004000B8FBF0F087B2042F00DA04273E4385
:1006B00009F10100208427E0E8884BF6FF718842A9
:1006C00006D1286800EB4000B8FBF0F087B209E0E3
:1006D000286800EBC00101EB0010B8FBF0F087B216
:1006E00047F48047C7F30B0008B947F0010747F408
:1006F000004006434FF4967009FB00F04FF47A7106
:1007000090FBF1F0401C2084A683208840F001007B
:10071000208026884FF6F5300640A888698908436E
:1007200006432680A88929890843208105B0BDE8B1
:10073000F083000000127A0040420F00A086010002
:100740000146088AC0B2704712B141F0010102E0CF
:100750004FF6FE731940018270470182704738B529
:10076000054600200090002402236A4600219E20B6
:10077000FFF79EFE002028709DF8000000F080002A
:1007800068B1012028709DF80000C043C0B28DF808
:1007900000009DF80000401CC0B28DF800009DF8DC
:1007A000000000F0010008B1601CC4B29DF8000018
:1007B00000F0020008B1A01CC4B29DF8000000F0D7
:1007C000040008B1201DC4B29DF8000000F008002C
:1007D00010B104F10800C4B29DF8000000F0100050
:1007E00010B104F11000C4B29DF8000000F0200028
:1007F00010B104F12000C4B29DF8000000F04000E8
:1008000010B104F14000C4B2681C05460470002415
:100810009DF8010000F0200010B104F10C00C4B2FA
:100820009DF8010000F0400010B104F11900C4B2BD
:100830009DF8010000F0800010B104F13200C4B254
:10084000681C0546047038BD00BFFEE7704770475E
:1008500029B1064AD2690243044BDA6104E0034A33
:10086000D2698243014BDA617047000000100240F8
:1008700029B1064A92690243044B9A6104E0034A93
:1008800092698243014B9A61704700000010024058
:1008900010B500F031F84FF4803000F0EFF800F0C0
:1008A0003FF9044634B34FF4E0114FF4803000F0C8
:1008B0001DF9002000F0D6F84FF4806000F004F934
:1008C000002000F001F90220FFF716FD1020FFF7CD
:1008D00005FD012000F004F900BF392000F09CF86C
:1008E0000028FAD0022000F00FF900BF00F0B2F8A3
:1008F0000828FBD110BD00000F48006840F001003F
:100900000D490860084640680C4908400A4948609B
:10091000084600680A490840074908600846006818
:1009200020F4802008600846406820F4FE004860FB
:100930004FF41F0088607047001002400000FFF86D
:10094000FFFFF6FE30B500210022002400232D4DCC
:100950006D6805F00C0121B1042905D0082923D1C7
:1009600005E0294D056022E0274D05601FE0254D7B
:100970006D6805F47012234D6D6805F4803402250E
:1009800005EB92421CB9214D554305600BE01D4D0E
:100990006D6805F400351DB11C4D5543056002E03E
:1009A000194D5543056002E0174D056000BF00BFBB
:1009B000144D6D6805F0F0010909154D6B5C056873
:1009C000DD4045600F4D6D6805F4E061090A104D8A
:1009D0006B5C4568DD4085600A4D6D6805F46051CB
:1009E000C90A0B4D6B5C4568DD40C560054D6D68FF
:1009F00005F44041890B074D6B5CC568B5FBF3F509
:100A0000056130BD0010024000127A0000093D006F
:100A1000000000201000002010B501460022002335
:100A200000204A11012A02D1094C236806E0022A5B
:100A300002D1074C236A01E0054C636A01F01F02F2
:100A4000012494401C400CB1012000E0002010BDA6
:100A5000001002400248406800F00C00704700009F
:100A60000010024001460020034A506820F0F000C8
:100A700008435060704700000010024011490968A7
:100A800021F480310F4A11601146096821F4802158
:100A90001160B0F5803F03D0B0F5802F0ED106E095
:100AA0000849096841F48031064A116007E00549A8
:100AB000096841F4A021034A116000E000BF00BFB3
:100AC000704700000010024001460020034A5068B1
:100AD00020F4605040EAC1005060704700100240AE
:100AE00001490866704700000000424202460020AB
:100AF000044B586820F47C1042EA01031843014B70
:100B0000586070470010024001460020034A5068B8
:100B100020F00300084350607047000000100240BE
:100B200038B5002000900024002500BF3120FFF7D9
:100B300073FF05460098401C00900098B0F5A06F28
:100B400001D0002DF2D03120FFF766FF08B101245B
:100B500000E00024204638BD704710B500F002F8D0
:100B600010BD00000CB500200190009033480068D3
:100B700040F480303149086000BF3048006800F41C
:100B8000003000900198401C0190009818B901981D
:100B9000B0F5A06FF1D12948006800F4003010B121
:100BA0000120009001E0002000900098012843D12E
:100BB0002348006840F0100021490860084600689A
:100BC00020F0030008600846006840F0020008605A
:100BD0001A48406819494860084640684860084615
:100BE000406840F4806048600846406820F47C100B
:100BF00048600846406840F4E810486008460068CD
:100C000040F08070086000BF0C48006800F0007081
:100C10000028F9D00948406820F0030007494860DF
:100C20000846406840F00200486000BF0348406842
:100C300000F00C000828F9D10CBD000000100240A3
:100C4000002002407047000010B51348006840F0D3
:100C500001001149086008464068104908400E49E3
:100C60004860084600680E4908400B49086008467D
:100C7000006820F4802008600846406820F4FE00E8
:100C800048604FF41F008860FFF767FF4FF0006077
:100C90000449086010BD0000001002400000FFF889
:100CA000FFFFF6FE08ED00E008B501210420FFF784
:100CB000DFFD4FF4C050ADF8000010208DF80300A8
:100CC00003208DF8020069460848FFF721FB00F079
:100CD00033F8442000F06EF800F052F800F02CF8E1
:100CE000882000F067F800F04BF808BD00080140CC
:100CF00030B587B004460D46182209A101A8FFF7B8
:100D000063FA00F019F804F1C001C8B200F052F81B
:100D100001A9485D00F04EF800F032F807B030BD90
:100D20003F065B4F666D7D077F6FBF86DBCFE6EDCD
:100D3000FD87FFEF0000000010B50122D1020F482F
:100D4000FFF771FB012211030C48FFF76CFB012038
:100D5000FFF7ACFA00224FF480510848FFF763FB1D
:100D60000120FFF7A3FA00224FF400610348FFF7C8
:100D70005AFB0120FFF79AFA10BD0000000801405D
:100D800010B50122D1020A48FFF74DFB00224FF4B3
:100D900080510748FFF747FB0120FFF787FA012240
:100DA00011030348FFF73FFB0120FFF77FFA10BD57
:100DB0000008014070B50446002526E000224FF4EB
:100DC00000611C48FFF72FFB0120FFF76FFA04F0CA
:100DD000010040B1012211031648FFF724FB012056
:100DE000FFF764FA08E000224FF480511148FFF742
:100DF0001AFB0120FFF75AFA0122D1020D48FFF732
:100E000012FB0120FFF752FA64102846691CCDB28C
:100E10000828D3DB00224FF400610648FFF703FBEC
:100E200000224FF480510348FFF7FDFA0120FFF73D
:100E30003DFA70BD0008014000BFFEE708B5FFF7AE
:100E400027FDFFF7F7FAFFF72FFF14210420FFF724
:100E50004FFF14210520FFF74BFF14210620FFF759
:100E600047FF14210720FFF743FF32E000200090E6
:100E70006846FFF774FC9DF801000A2190FBF1F031
:100E8000C4B221460020FFF733FF9DF801000A217C
:100E900090FBF1F201FB12000A30C4B2214601209E
:100EA000FFF726FF9DF802000A2190FBF1F0C4B283
:100EB00021460220FFF71CFF9DF802000A2190FB4B
:100EC000F1F201FB1200C4B221460320FFF710FF2C
:100ED00000BFCBE7F40E0008000000201400000063
:100EE00028010008080F0008140000206406000014
:100EF0004401000800000000010203040102030491
:080F00000607080902040608B7
:04000005080000ED02
:00000001FF
